:020000040800F2
:10000000C055002045010008BD110008ED0F000893
:10001000B1110008650A0008913E000800000000C8
:10002000000000000000000000000000451900086A
:10003000CD0C00080000000055130008B11A00089C
:100040005F0100085F0100085F0100085F01000810
:100050005F0100085F0100085F0100085F01000800
:100060005F0100085F0100085F0100085F010008F0
:100070005F0100085F010008150B00085F01000820
:100080005F010008F10B0008C5070008DD3C00080F
:10009000293E00085F0100085F0100085F010008B9
:1000A0005F010008991C00085F0100085F0100085B
:1000B0005F0100085F010008BD1C00085F01000827
:1000C0005F0100085F0100085F0100085F01000890
:1000D0005F010008DD3900085D3B00085F01000892
:1000E000050D00085F0100085F0100085F010008BE
:1000F0005F0100085F0100085F0100085F01000860
:100100005F0100085F0100085F0100085F0100084F
:100110005F0100085F010008151D00084D1D000863
:100120005F0100085F0100085F0100085F0100082F
:10013000DFF80CD000F008FB004800471965000804
:10014000C05500200648804706480047FEE7FEE706
:10015000FEE7FEE7FEE7FEE7FEE7FEE7FEE7FEE777
:10016000B51A00083101000840EA01039B0703D0DB
:1001700009E008C9121F08C0042AFAD203E011F8E6
:10018000013B00F8013B521EF9D27047D2B201E0A8
:1001900000F8012B491EFBD270470022F6E710B58C
:1001A00013460A4604461946FFF7F0FF204610BDE5
:1001B00030B504460020034600E05B1C934203D2A6
:1001C000E05CCD5C401BF8D030BD2DE9FE4F804691
:1001D00081EA0300C00F0C46009021F0004123F09B
:1001E0000045B8EB0200A94105D2404621469046A1
:1001F0001C460B46024623F00040104347D0270D13
:10020000C7F30A00C3F30A510290401A0190402834
:100210006BDAC3F3130040F4801B0098924620B1C0
:100220000023D2EB030A63EB0B0B01985946C0F194
:100230004002504600F0C3F906460D465046594666
:10024000019A00F0DBF910EB08006141002487EA15
:10025000115284EAE7731A4340D0009A62B3019ABC
:10026000012A4FEA075215DC001B61EB02014FF037
:10027000004202EA0752CDE90042001C41F580111C
:1002800032462B4600F012FA03B0BDE8F08F40462C
:100290002146F9E7001B61EB0201001C41F58013C8
:1002A00000185B412018A2F5001747EB030140EA54
:1002B000D570B6196D4111E06D084FEA360645EA72
:1002C000C0754FEA0752001B61EB0201001C41F5AB
:1002D000801149084FEA30000019514132462B463F
:1002E00003B0BDE8F04F00F0D2B900980122400001
:1002F0000023D0EB020263EBE073009821464FEA43
:10030000E074B8EB000061EB0401E9E783F000431F
:100310005BE781F0004158E72DE9FE4F81EA0304D5
:1003200004F0004421F0004100944FF0000B23F052
:10033000004350EA01045ED052EA03045BD0C3F3E9
:100340000A54C1F30A552C44A4F2F3340194A0FBDF
:100350000254C1F3130141F48011C3F3130343F4B6
:10036000801301FB024400FB034E840A970A44EA0F
:10037000815447EA8357A4FB076802958D0A05FB61
:1003800007854FEA932C04FB0C542705029D4FEA86
:10039000065847EA1637B5EB08056EEB070C870ED3
:1003A000920E47EA811742EA8312A7FB0201B6EBDD
:1003B0000B0164EB00042B0D43EA0C335E1844EB95
:1003C0001C50DA465146E7FB0201C5F313044FEA1D
:1003D0000B3343EA14534FEA0432019C43EA060309
:1003E000A4F10C040294009CCDE900B400F05EF985
:1003F00003B0BDE8F08F00200146F9E72DE9F04D8C
:1004000081EA030404F0004B21F0004514464FF04C
:10041000000A23F0004150EA050220D054EA01020C
:100420001DD0C5F30A570246C5F31303C1F31300E9
:10043000C1F30A5640F4801543F48013A7EB060875
:10044000101BD64608F2FD3873EB050002D308F105
:10045000010801E092185B41B8F1000F03DA0020B7
:100460000146BDE8F08D00204FF480110646844619
:100470000EE0171B73EB050705D3121B63EB050397
:1004800006434CEA010C49084FEA300092185B41E0
:1004900050EA0107EDD152EA030012D082EA0400CB
:1004A00083EA0501084305D0101BAB4106D20122A7
:1004B000002306E000224FF0004302E06FF001024B
:1004C00053101AEB06004CEB085110EB0A0041EBFD
:1004D0000B01BDE8F04D00F0DAB80EB5C10F80EAAF
:1004E000E0700844CA07002140F233438DE80E0053
:1004F0000A460B4600F0DAF803B000BD0EB540F234
:10050000334102910021CDE900110A460B4600F06B
:10051000CDF803B000BD70B5C1F30A5201F000453B
:100520000024C1F3130140F2FF3341F480119A42D9
:1005300001DA002070BD40F233439A42A2F2334206
:1005400003DC524200F04AF800E090402C43F1D026
:10055000404270BDC1F30A5210B5C1F3130140F21D
:10056000FF3341F480119A4201DA002010BD40F2BD
:1005700033439A42A2F2334203DC524200F02EF897
:1005800010BD904010BD01F0004330B421F0004197
:1005900050EA010206D00A0DA2F56072C1F3130100
:1005A000002A02DC30BC00207047440F44EAC1043A
:1005B000C100E01830BC00EBC25000F031B8202A76
:1005C00004DB203A00FA02F1002070479140C2F1AA
:1005D000200320FA03F3194390407047202A04DBDC
:1005E000203A21FA02F00021704721FA02F3D040AC
:1005F000C2F120029140084319467047202A06DBC9
:10060000CB17203A41FA02F043EAE07306E041FAE0
:1006100002F3D040C2F120029140084319467047CE
:100620000029A8BF7047401C490008BF20F0010006
:10063000704710B4B0FA80FC00FA0CF050EA0104E4
:1006400004BF10BC704749B1CCF1200421FA04F476
:1006500011FA0CF118BF012121430843A3EB0C014F
:10066000CB1D4FEA00614FEA102042BF002010BCB2
:10067000704700EBC35010440029A4BF10BC704762
:10068000401C490008BF20F0010010BC704710B5A5
:10069000141E73F1000408DA401C41F100019218A5
:1006A0005B411A4301D120F0010010BD2DE9F04D4E
:1006B00092469B4611B1B1FA81F202E0B0FA80F2A3
:1006C00020329046FFF77BFF04460F4640EA0A00BF
:1006D00041EA0B0153465A46084313D0114653EAE8
:1006E000010019D0C8F140025046FFF777FF0546D8
:1006F0000E46504659464246FFF761FF084305D073
:10070000012004E020463946BDE8F08D0020054375
:1007100046EAE0762C4337430A986305E40AA0EBE7
:1007200008000022FD0A44EA47540A3002D500209E
:100730000146E9E7010510196941DDE9084500199D
:100740006941BDE8F04DA2E7064C074D06E0E068C0
:1007500040F0010394E8070098471034AC42F6D308
:10076000FFF7EAFCA42E0108C42E010870B58C180E
:1007700010F8015B15F0070301D110F8013B2A11B5
:1007800006D110F8012B03E010F8016B01F8016BA2
:100790005B1EF9D12B0705D40023521E0DD401F89E
:1007A000013BFAE710F8013BCB1A921C03E013F867
:1007B000015B01F8015B521EF9D5A142D8D300209C
:1007C00070BD0000B0B542F20044C4F201042046FE
:1007D000042103F0C5FE2046002103F0A5FE43F6E8
:1007E0002E45C2F20005288004F58060002103F048
:1007F0009BFE68802046012103F038FF002006F0B0
:1008000095F9298804460803C4F88800002005F0FB
:10081000AFF90146204600F0C3FDD4F8AC00002833
:10082000C4F8840014BFD4F8CC10D4F8D01009B1A7
:1008300020468847012006F079F9698804460803B4
:10084000C4F88800012005F093F90146204600F025
:10085000A7FDD4F8AC000028C4F8840014BFD4F875
:10086000CC10D4F8D01009B120468847BDE8B0407C
:100870000AF062BCF0B581B042F69874C2F200048E
:1008800020790021512861830CD3D4E902129142CE
:1008900016DA218A0131218289B2B1F5897F1CD90A
:1008A00060E000BF322827D3D4E90212914231DA46
:1008B000218A0131218289B2E12979D352E000BF36
:1008C0006269914204DD218B013121830121618321
:1008D000218A89B2B1F5897F44D8218BE32973D964
:1008E00005300021C2B221832182642A28BF6420FE
:1008F0002071053864E000BF1E2819D3D4E9021224
:10090000914223DA218A0131218289B2A0294FD371
:1009100028E000BF6269914204DD218B013121830F
:1009200001216183218A89B2E1291BD240E000BF05
:100930000528C0F08E80D4E9021291421EDA218A85
:100940000131218289B2962932D123E06269914234
:1009500004DD218B0131218301216183218A89B248
:10096000A02925D3802200212283421F0A38218218
:10097000227160712177218527E000BF6269914271
:1009800004DD218B0131218301216183218A89B218
:1009900096290DD180222283421FD3B20021042B3D
:1009A0002182227158D805202071002056E000BF16
:1009B000218BE32908D90021421D21832182227144
:1009C0006071217701E000BF6079C1B264256429BC
:1009D00028BF2846C1B20526052998BF3046C0B2B7
:1009E000CD2250431427E179A7EB902042F65463BF
:1009F000C0B242F66422C0F60103C0F6010201292A
:100A000008BF134653F820004FF080710FF0ECFC44
:100A10002179642938BF0D464CF6CD41CCF6CC4146
:100A2000052D98BF3546A5FB0112A7EB920142F6B2
:100A3000FC22C0F6010202EB810191ED000AE060A8
:100A4000BDEEC00A10EE100A4FF080710FF0CCFC22
:100A5000606101B0F0BD00BF0A38217700216071EC
:100A600089E700000020002105F01AFAFAE70000EB
:100A7000B0B584B004460DF0E3FE40F2047007F018
:100A8000BFFE41F20005C4F20005284608F036FD1D
:100A9000772000904FF6FF700290002001908DF8B3
:100AA0000C006946284608F097FD362001210122F6
:100AB00005F08AFF2846012108F0EAFD284608F0E3
:100AC00085FD40F25005C2F200052846214608F097
:100AD00003F92846002108F0D9F92846052108F035
:100AE000D5F904B0B0BD000080B5D0E9812E4FF635
:100AF000FF7302EB81029278D0F814C22EF8113005
:100B000083184FF0010E114683F818E2BDE88040CB
:100B10006047000070B590B00024C4F20204204683
:100B20000321022204F0D6F900285ED020460321DA
:100B3000022204F0C7F92046032104F019F900202D
:100B400000210DF077FE44F6F04EC2F2000EBEF822
:100B50000020BEF80200111A0BB2002B48BF403132
:100B60000DB22B46402DA8BF402399B2A94238DCD4
:100B70001B0436D0824215D1002000BF40F0010294
:100B800012B291422DDD40F0020212B2914228DDF4
:100B900040F0030212B2914223DD043002B29142CE
:100BA000ECDC1EE00025EC460346002411E000BF0B
:100BB0001EFA83F31B7901300CF8053083B23F2B0A
:100BC00088BF00200346AEF80200013425B2A942D6
:100BD00007DD9EB29642EBD11346013425B2A942FD
:100BE000F7DC11B168460BF00DFA10B070BD0000D3
:100BF00070B584B00024C4F202042046062102220B
:100C000004F068F900285ED020460621022204F094
:100C100059F92046062104F0ABF8012000210DF01F
:100C200009FE44F6785EC2F2000EBEF80020BEF85F
:100C30000200111A0BB2002B48BF40310DB22B46F7
:100C4000102DA8BF102399B2A94238DC1B0436D05E
:100C5000824215D1002000BF40F0010212B2914241
:100C60002DDD40F0020212B2914228DD40F0030275
:100C700012B2914223DD043002B29142ECDC1EE05C
:100C80000025EC460346002411E000BF1EFA83F362
:100C90001B7901300CF8053083B23F2B88BF002050
:100CA0000346AEF80200013425B2A94207DD9EB228
:100CB0009642EBD11346013425B2A942F7DC11B1BB
:100CC00068460BF0BBF904B070BD0000704700002F
:100CD000411C4FF6FF7C12D040F24402C2F20002E7
:100CE000138881B28B4204BF411E118044F67C21DF
:100CF00000EB4000C2F20001002201F830200FFAA0
:100D00008CF07047704700002DE9F04144F28818DC
:100D1000C2F20008D8F804240C46D1071CBF0120F9
:100D2000BDE8F08143F60046C4F20006074642F0F3
:100D3000010006F55845C8F80404284601210022A0
:100D400004F034FA28460121012200BF00BF00BF91
:100D500000BF00BF00BF00BF00BF00BF00BF00BF9B
:100D600000BF00BF00BF00BF00BF00BF00BF00BF8B
:100D700000BF04F01BFA7F013046022108F042F95F
:100D80000028F9D047F4404081B2304608F038F9E5
:100D90003046012108F036F90028F9D0304608F035
:100DA0002BF907463046022108F02CF90028F9D02B
:100DB0003046002108F024F93046012108F022F9DC
:100DC0000028F9D0304608F017F93903000441EA49
:100DD00010502080284601210022002404F0E6F96A
:100DE000D8F8040420F00100C8F804042046BDE847
:100DF000F08100002DE9F04144F28818C2F20008A9
:100E0000D8F804240E46D10718BFBDE8F08143F698
:100E10000045C4F20005074642F0010005F55844BC
:100E2000C8F8040420460121002204F0BFF920463E
:100E30000121012200BF00BF00BF00BF00BF00BFF3
:100E400000BF00BF00BF00BF00BF00BF00BF00BFAA
:100E500000BF00BF00BF00BF00BF00BF04F0A6F985
:100E600028464FF4986108F0CBF800BF28460121CE
:100E700008F0C8F80028F9D0284608F0BDF8204648
:100E80000121002204F092F920460121012200BF35
:100E900000BF00BF00BF00BF00BF00BF00BF00BF5A
:100EA00000BF00BF00BF00BF00BF00BF00BF00BF4A
:100EB00000BF00BF00BF04F079F900BF284602213F
:100EC00008F0A0F80028F9D047F4A061284608F0FF
:100ED00097F800BF2846012108F094F80028F9D0BF
:100EE000284608F089F800BF2846022108F08AF851
:100EF0000028F9D02846314608F082F8284601211A
:100F000008F080F80028F9D0284608F075F8204647
:100F100001210022002604F049F920460121012286
:100F200000BF00BF00BF00BF00BF00BF00BF00BFC9
:100F300000BF00BF00BF00BF00BF00BF00BF00BFB9
:100F400000BF00BF00BF00BF04F030F943F67F00D0
:100F5000C0F20100002100BF721C41F10003371AEA
:100F600071F100011646194600BFF5D32046012154
:100F7000002204F01BF920460121012200BF00BF1E
:100F800000BF00BF00BF00BF00BF00BF00BF00BF69
:100F900000BF00BF00BF00BF00BF00BF00BF00BF59
:100FA00000BF00BF04F002F92846022108F02AF829
:100FB0000028F9D028464FF4806108F021F800BFDE
:100FC0002846012108F01EF80028F9D0284608F02C
:100FD00013F820460121002204F0E8F8D8F80404B0
:100FE00020F00100C8F80404BDE8F08100200021D1
:100FF00004F056FFFAE70000F0B583B0382004F0A3
:10100000ABFD42F69875C2F2000528707D2004F011
:10101000A3FD04467E2004F09FFD4FF6C0702040E3
:1010200045F6BF51884205D87D2045F6C0510122C2
:1010300008F098FB287868B30120E88000F0F2FA05
:10104000287144F64030C0F24C0000BF013800BFA8
:10105000FCD1287900B341F2E2660020C0F25906C3
:1010600004F090FD0403701C4AF6B627C0F258073E
:10107000019043A2042009212346009704F04AFF6F
:10108000BC420FDDB4424FF0640020D829791A2900
:1010900024D21CE003B0F0BD002068712882052036
:1010A00029E000BFE97944F2B850C0F256000129A6
:1010B0004FF0807104BF46F21A70C0F258000FF072
:1010C00093F92979844209DD0A2907D80F2028716C
:1010D00005380021687129820DE000BF481FC1B2A8
:1010E0000022632968712A8204D8062938BF0520A6
:1010F00001E000BF6420C0B2CD2250431424E9793E
:10110000A4EB902042F65463C0B242F66422C0F6CB
:101110000103C0F60102012908BF134653F820005D
:101120004FF080710FF060F929794CF6CD426429B7
:1011300028BF6421052998BF0521CCF6CC42A1FB2C
:101140000212A4EB920142F6FC22C0F6010202EB6D
:10115000810191ED000AE8608020BDEEC00A28837D
:1011600010EE100A4FF080710FF03EF96861002117
:1011700028792977298503B0BDE8F04002F08EBEBA
:10118000766F6C74616765203D2025642C204F705C
:10119000656E766F6C74203D2025642C206F706521
:1011A0006E766F6C745F3435203D2025640D0A0027
:1011B0000020002104F074FEFAE7000070470000F0
:1011C00080B507F03FFF002080BD0000B0B50446A9
:1011D000D0F80002007888B1D4F80812002500BFCA
:1011E00031F91500FFF774FDD4F80812D4F8002285
:1011F00021F81500107801358542F1D3B4F91002B9
:10120000FFF766FDA4F81002204604F013FA002050
:10121000B0BD000080B5D0F8E012097811B100200F
:1012200080BD00BF90F8DD120029F8D0D0F8E402AC
:101230008900FEF7B2FF002080BD0000826801EB4C
:10124000C10302EB43024FF6FF7353800023C9B280
:10125000D38007F005BC000010B5826801EBC10324
:1012600012F8134002EB430C4FF6FF7E04F0FE042D
:10127000ACF804E0C9B202F81340BDE8104007F032
:10128000EFBB00002DE9F04782B0044640690789B2
:101290001FB1A0690589AF4206D92046002102F09E
:1012A00023FF02B0BDE8F08741F61D6A4FF4C05637
:1012B0000DF10408E946C0F6000A05E00137B8B2AE
:1012C000A84206F10106E8D8B1B2204642464B4694
:1012D00007F0BEFB01980028F0D1009800281CBF41
:1012E000C0E902AAC0F814A0E8E700002DE9F04325
:1012F00081B00446406905894DB3A069B0F80890F3
:101300004D4524D8A1684FF000080027F8B2C0006E
:1013100050FA87F601EB4600B0F90200FFF7D8FC5F
:10132000A16801EB4602B2F9041050800846FFF7AD
:10133000CFFCA168013501EB46029080A8B2484578
:1013400007F1010701F81680A2F80680DED901B086
:10135000BDE8F0837047000010B584B00446D0F8B3
:101360000C020088A0B1206894F8E01100788DF894
:10137000081000F5E060ADF804004FF48070ADF89F
:101380000600D4F8B80201A903F0A6FA04B010BD13
:10139000B4F91002FFF79CFCA4F8100204B010BDD1
:1013A000F0B583B0D0F8C020571C3B07C0F8C07020
:1013B00002D003B0F0BD00BF90ED290AD0F8B0C054
:1013C000B5EE400AF1EE10FAA1EB0C0E1ED090ED36
:1013D0002A1AB5EE401AF1EE10FA17D07346BEF194
:1013E000000F48BFCEF10003D0F89440A34203DBC6
:1013F0008C4201DAA44576DBA342A8BF8C4227DCED
:10140000D0F89C50ACEB04062AE000BF7446BEF155
:10141000000F48BFCEF10004D0F894309C4203DBAB
:101420008B4201DA9C4557DB9C42A8BF8B4207DC0C
:10143000BEF1010F3EDBD0F89C3063444CE000BFAE
:10144000D0F89C40ACEB0303A342F1DA002343E065
:10145000D0F89C50ACEB0406AE4201DA002442E026
:1014600002EE106AD0F89860B8EEC22A341B21EE62
:10147000021A02EE104AB8EEC22A81EE021A02EEF9
:10148000105AB8EEC22ABEF1010F30EE010A20EE6A
:10149000020ABDEEC00A10EE105AA8BFAE4511DC1C
:1014A0000C46AB42C8BFACEB0504BEF1000F58BF01
:1014B0000C4618E0BEF1FF3F08DD4FF0000E63461A
:1014C0000CE000BF0CEB05040DE000BFD0F89C3031
:1014D000CEF1000EACEB0303C0F8B030D0F89C6046
:1014E0000C46B64502DA2346C0F8B040B0F8B86002
:1014F000B0F8B450741CA6B2C0F8AC30AE42A0F83C
:10150000B84022BF0024A0F8B840C0F8BC40D0F8D2
:10151000BC20A6B2B0F8B640B6EB550F28BF644267
:1015200016194CF6CD42CCF6CC427A4343F233370F
:10153000002B4FEA3212C0F23337C0F8BC601ABF3A
:101540003344C0F8AC300023BA423FF632AF90F8D3
:10155000C420002A7FF42DAF43F6E424D0F88400A1
:10156000C2F200042768CDE9001005A2012007217E
:10157000029704F0CFFC20680530206003B0F0BD76
:1015800043757272656E74436D64203D2025642C32
:1015900020546172676574203D2025642C204972B7
:1015A0006566203D2025642C20436E74203D202557
:1015B000640D0A00B0F800C043884FEA5C0203FBE8
:1015C0000CF302EB1342B0F9040092B247F6FF733A
:1015D0004243C0F68063D0139A42C8BF41F601501F
:1015E00001290FD0002918BF704740F63401C4F21A
:1015F00000016045CEBF002000B2ACEB00000860E7
:101600008860704740F634016045C4F2000103DD94
:1016100000204860C860704700B2ACEB0000486032
:10162000C8607047B0B582B001A9F120012208F06E
:1016300055F828B14FF6FF70ADF80400642412E0AD
:10164000BDF8040045F2555188424FF064040AD1B8
:101650000DF10601F220012208F040F8BDF8061055
:10166000002808BF0C460DF10201F320012208F00A
:1016700035F84FF0640598B9BDF8020045F25551B0
:1016800088424FF064010CD10DF10601F4200122D3
:1016900008F024F8BDF80610002818BF642100E007
:1016A000642188B2A2B2824288BF0C46E0B26428AC
:1016B00038BF2546E8B2052898BF0525E8B202B034
:1016C000B0BD0000B0B582B01C46D0F8BC321546A3
:1016D000084601A96A469847019931B9009A22B192
:1016E0000079A84288BF42F82540084602B0B0BD44
:1016F0002DE9F04F83B0044640694688002E00F083
:1017000089808B4658210BFB0142A36992F828700F
:101710005D88B919A9427DD8D4F804E092F829A0CF
:101720005EF8311092F832C0CE6A40F20008D6F866
:1017300000904FF6FF76A2F87A60852682F82A603C
:1017400094F8E061128E7F2EC0F2045801D0052E6D
:1017500026D1BAF1010F09D1008808B3198838449D
:1017600088421DD85EF83000006A00E048690068D1
:101770004FF40061ADF80000100AADF802104FEA16
:101780000C61D2B241EA004040EA022000F180013F
:10179000D4F8B80201916946CDF8088003F09CF8AE
:1017A00058260BFB064747F82C8F3A6D32B15FFA8B
:1017B00089F120469047386840452BD15FFA8BF07D
:1017C00010FB0644B4F97A00FFF782FAA4F87A0015
:1017D000E06D002584F82850258684F83250658510
:1017E000C4E90D55A4F8645084F8665084F8785024
:1017F000E567A566E5660EF0FFFDC4E91755E563EC
:1018000025646564A564E56425656565A56584F85A
:101810002950E56203B0BDE8F08F000080B584B0C8
:101820008C4658211CFB0102114651F8343F0BB97C
:10183000936B0B60212B03934FF05803118E92F89A
:1018400032201CFB030334BF3C33DB6D4FF0010C33
:101850000DF10C0ECDE900ECCDF808C002F00CFD46
:1018600004B080BD2DE9F04F81B08146582011FBB6
:10187000009BDA465AF8386F8846B1181C46154660
:1018800021290AF104072ED35BF85C0FB0B158226E
:1018900018FB029858F8602F914223D902F5806115
:1018A0000EF038FE002849D00746D8F80000CBF8E3
:1018B000007000F58060C8F8000014E04FF480600C
:1018C0000EF0C8FD582118FB01914FF48062CBF84F
:1018D00000000A6690B3394632468046FEF744FC63
:1018E000474600E0074605B300210020625C8B19E3
:1018F00040F00101C9B2A942FA5416D2625C7318D1
:1019000040F00201C9B2A942FA540ED2625C7318C7
:1019100040F00301C9B2A942FA5406D20430625C15
:101920007318C1B2A942FA54E0D3DAF8000028448F
:10193000CAF80000002001B0BDE8F08FFF2001B020
:10194000BDE8F08F704700002DE9F04F81B040F204
:10195000440AC2F2000A8846BAF900104FF0FF3478
:10196000B1F1FF3FC0F27E801646002A00F07A8077
:1019700044F67C22C2F20002814610789B46002881
:1019800088B239D003B2B3F1FF3F6BDD174617F8C9
:10199000183FABB3002865D0174617F8303F8BB31C
:1019A00002285FD3174617F8483F6BB3032859D373
:1019B000174617F8603F4BB3042853D3174617F860
:1019C000783F2BB305284DD3174617F8903F0BB33C
:1019D000062847D3174617F8A83FEBB1072841D38D
:1019E000174617F8C03FCBB108283BD312F8D83FB1
:1019F000002B37D1092400E0002417460FE000BF78
:101A000001240CE002240AE0032408E0042406E098
:101A1000052404E0062402E0072400E00824013144
:101A2000A14204BF0130AAF8000003F037FB0546CD
:101A30004FF6FF70DAF80410834538BF5846491B4B
:101A400088BF814204D92918CAF8041007F098FA0F
:101A500005EB0B00C7E903800A98C7E90196786196
:101A600001203870204601B0BDE8F08F10B584B079
:101A70000446D0F89C020168D4F8B802ADF804100E
:101A80000021ADF8061001A902F026FFD4F8A41237
:101A90002046884794F8E60138B12046012102F03B
:101AA00023FBD4F8A8122046884704B010BD0000DC
:101AB0000BF00EBE81B04EF68851CEF200010A68DE
:101AC00041F2040042F47002C4F202000A6050F8CD
:101AD000041C4FF0000C41F0010140F8041C0168A7
:101AE00044F61F6241F080010160CDF800C0009B08
:101AF000934219D844F6206300990131009100996E
:101B0000914211D8009901310091009991420BD86E
:101B10000099013100910099914205D80099013155
:101B2000009100999942E7D3C0F800C0C0F828C0DE
:101B300050F8041C4FF6FF72CFF6F662114040F8E1
:101B4000041C4FF41F01416050F8041C21F4802153
:101B500040F8041C50F8041C41F4803140F8041C87
:101B60004FF6FC7150F8042C92030ED450F8042C5C
:101B700092035CBF50F8042C5FEA823205D421B195
:101B800050F8042C04399203ECD550F8041C890356
:101B900002D400BFFEE700BF826947F2040142F0B1
:101BA0008052C4F20001826151F8042C4FF6FF7399
:101BB00042F4404241F8042C0268CBF2C373026045
:101BC00002680260026842F480620260026822F4E5
:101BD00040320260026842F44032026002681A40F9
:101BE0000260026842F0006242F45012026050F853
:101BF000042C42F0807240F8042C50F8042C92011E
:101C00000CD450F8042C92015CBF50F8042C5FEA0D
:101C1000821203D450F8042C9201EED551F8042C12
:101C200042F4803241F8042C0A68D20309D40A68CD
:101C3000D2035CBF0A685FEAC23202D40A68D203E8
:101C4000F2D551F8042C42F4003241F8042C0A6811
:101C5000920309D40A6892035CBF0A685FEA823281
:101C600002D40A689203F2D5016821F003010160F1
:101C7000016841F0020101600168090709D40168A7
:101C800009075CBF01685FEA017102D401680907B6
:101C9000F2D501B07047000010B542F60044C4F21E
:101CA00001042046012107F0FBFC012818BF10BDEC
:101CB00020460121BDE8104007F0EEBC70B540F6AB
:101CC0000004C4F2000420460221022507F0E8FCCB
:101CD000012801D1002612E020460421042507F046
:101CE000DFFC012802D1012609E000BF20460821BF
:101CF000082507F0D5FC012818BF70BD0226204634
:101D0000294607F0C9FC20463146BDE8704007F07F
:101D10009DBA000010B541F20004C4F20004204650
:101D2000012107F0BDFC002808BF10BD204601219D
:101D300007F0B2FC43F25410C2F200000021C0E9E7
:101D40000211BDE8104001F0DDBD0000B0B541F268
:101D50000044C4F200042046012107F0A1FC002841
:101D600047D02046012107F097FC43F24405C2F218
:101D700000056878411C01F07F0100F080021144E9
:101D800010F07C0F69700BD0C20904F580304FF45D
:101D9000806103F00BFA6878802121EA0000687006
:101DA0006868411C40F6B8308142696021D36860A0
:101DB00004F580304FF4006103F0F6FB297881428E
:101DC00014D16888013081B26429688038BFB0BD01
:101DD0000020002104F064F8512003F00BFE05A25E
:101DE00004200B21BDE8B04004F094B800216980C4
:101DF0002870B0BD4C6F6E672054696D65204E6FC2
:101E000020526576204D73742048617264205764B7
:101E1000672121212121210D0A00000070B504460F
:101E200090F8E60188B3052A2FD80120904010F0E1
:101E30002C0F2AD0606962680089A36802EBC00099
:101E4000081AC0F3C705C108E80050FA81F603EB91
:101E50004600B0F90200FEF73BFFA16801EB460225
:101E6000B2F9041050800846FEF732FFA16801EB7A
:101E700046029080002001F816004FF6FF71518055
:101E8000D0802046294606F0EBFD002070BD000002
:101E90000023B0F5C05F1360C1F24681A0F5C05CBD
:101EA0004FEA1C13922B01F25D810FF20600DFE86E
:101EB0001CF03109C909D309DD09E509EF09F90960
:101EC000030A0B0A130AC309C309C309C309C309D7
:101ED000C309C309C309C309C309C309C309C309A2
:101EE000C309C309C309C309C309C309C309C30992
:101EF000C309C309C309C309C309C309C309C30982
:101F0000C309C309C309C309C309C309C309C30971
:1022B000C3091B0A1D0A1F0A210A230A250A270A25
:1022C000290A2B0A2D0AC309C309C309C309C30973
:1022D000C309C309C309C309C309C309C309C3099E
:1022E000C309C309C309C309C309C309C309C3098E
:1022F000C309C309C309C309C309C309C309C3097E
:10230000C309C309C309C309C309C309C309C3096D
:102EB000C3092F0A310A330A350A370A390A3B0A8D
:102EC0003D0A3F0A410A430A450A470A490A4B0A92
:102ED0004D0A4F0A510A530A550A570A590A5B0A02
:102EE0005D0A5F0A610A630A650A670A690A6B0A72
:102EF0006D0A6F0A710A730A750A770A790A7B0AE2
:102F00007D0A7F0A810A830A850A870A890A8B0A51
:102F10008D0A8F0A910A930A950A970A990A9B0AC1
:102F20009D0A9F0AA10AA30AA50AA70AA90AAB0A31
:102F3000AD0AAF0AB10AB30AB50AB70AB90ABB0AA1
:102F4000BD0ABF0AC10AC30AC50AC70AC90ACB0A11
:102F5000CD0ACF0AD10AD30AD50AD70AD90ADB0A81
:102F6000DD0ADF0AE10AE30AE50AE70AE90AEB0AF1
:102F7000ED0AEF0AF10AF30AF50AF70AF90AFB0A61
:102F8000FD0AFF0A010B030B050B070B090B0B0BCB
:102F90000D0B0F0B110B130B150B170B190B1B0B39
:102FA0001D0B1F0B210B230B250B270B290B2B0BA9
:102FB0002D0B2F0B310B330B350B370B390B3B0B19
:102FC0003D0B3F0B410B430B450B470B490B4B0B89
:102FD0004D0B4F0B510B530B550B570B590B5B0BF9
:102FE0005D0B5F0B610B630B650B670B690B6B0B69
:102FF0006D0B6F0B710B730B750B770B790B7B0BD9
:103000007D0B7F0B810B830B850B870B890B8B0B48
:103010008D0B8F0B910B930B950B970B990B9B0BB8
:103020009D0B9F0BA10BA30BA50BA70BA90BAB0B28
:10303000AD0BAF0BB10BB30BB50BB70BB90BBB0B98
:10304000BD0BC309C309C309C309C309C309C30924
:10305000C309C309C309C309C309C309C309C30910
:10306000C309C309C309C309C309C309C309C30900
:10307000C309C309C309C309C309C309C309C309F0
:10308000C309C309C309C309C309C309C309C309E0
:10309000C309C309C309C309C309C309C309C309D0
:1030A000C309C309C309C309C309C309C309C309C0
:1030B000C309BF0BC10BC30BC50BC70BC90BCD0B92
:1030C000D10BD50BD90BDD0BE10BE50BE90BED0BB0
:1030D000F10BF50BF90BFD0B010C050C090C0D0C9C
:1030E000110C150C190C1D0C210C250C290C2D0C88
:1030F000310C350C390C3D0C410C450C490C4D0C78
:10310000510C550C590C5D0C610C650C690C6D0C67
:10311000710C00BF43F26410C2F200003430106042
:103120001F2300F0D9BB00BFB0F5A05F34DBA0F5D2
:10313000A052092A40F25680A0F5B050092800F2AA
:103140007B80DFE810F00B002B032D032F033103EE
:1031500033033503370339033B0300BF152300F066
:10316000BBBB00BFA0F54052092A40F24D80A0F53C
:103170008040092800F26080DFE810F00A00220396
:1031800026032A032E03320336033A033E03420387
:1031900040F2351300F0A0BBA0F5805CBCF1180F25
:1031A00044D80FF20600DFE81CF09703190047002F
:1031B0002F03470037033F034700470047004700FE
:1031C0004700470047004700470047034F034700B9
:1031D000470057034700470059036103012300F0EC
:1031E0007BBB00BF0FF20400DFE812F00A004203CD
:1031F0004403460348034A034C034E03500352035F
:103200000B2300F069BB00BF0FF20400DFE812F0EF
:103210000A00420346034A034E03520356035A036D
:103220005E03620340F22B1300F056BBB0F5905FD3
:1032300002D10A2300F050BB0020C0F202600860F7
:103240000020704743F26410C2F200004C3010605E
:10325000202300F041BB00BF43F26410C2F2000023
:1032600064301060212300F037BB00BF43F2E01050
:10327000C2F200001060222300F02EBB43F2E010E7
:10328000C2F2000018301060232300F025BB00BFFD
:1032900043F2E010C2F2000030301060242300F04E
:1032A0001BBB00BF43F2E010C2F2000048301060C8
:1032B000252300F011BB00BF43F2E010C2F2000072
:1032C00060301060262307E343F25820C2F200006A
:1032D0001060272300E300BF43F25820C2F2000031
:1032E000183010602823F7E22923F5E22A23F3E2BD
:1032F0002B23F1E22C23EFE22D23EDE22E23EBE250
:103300002F23E9E23023E7E23123E5E23223E3E24F
:103310003323E1E23423DFE23523DDE23623DBE24F
:103320003723D9E23823D7E23923D5E23A23D3E24F
:103330003B23D1E23C23CFE23D23CDE23E23CBE24F
:103340003F23C9E24023C7E24123C5E24223C3E24F
:103350004323C1E24423BFE24523BDE24623BBE24F
:103360004723B9E24823B7E24923B5E24A23B3E24F
:103370004B23B1E24C23AFE24D23ADE24E23ABE24F
:103380004F23A9E25023A7E25123A5E25223A3E24F
:103390005323A1E254239FE255239DE256239BE24F
:1033A000572399E2582397E2592395E25A2393E24F
:1033B0005B2391E25C238FE25D238DE25E238BE24F
:1033C0005F2389E2602387E2612385E2622383E24F
:1033D000632381E264237FE265237DE266237BE24F
:1033E000672379E2682377E2692375E26A2373E24F
:1033F0006B2371E26C236FE26D236DE26E236BE24F
:103400006F2369E2702367E2712365E2722363E24E
:10341000732361E274235FE275235DE276235BE24E
:10342000772359E2782357E2792355E27A2353E24E
:103430007B2351E27C234FE27D234DE27E234BE24E
:103440007F2349E2802347E2812345E2822343E24E
:10345000832341E284233FE285233DE286233BE24E
:10346000872339E2882337E2892335E28A2333E24E
:103470008B2331E28C232FE28D232DE28E232BE24E
:103480008F2329E2902327E2912325E2922323E24E
:10349000932321E294231FE295231DE296231BE24E
:1034A000972319E2982317E2992315E29A2313E24E
:1034B0009B2311E29C230FE29D230DE29E230BE24E
:1034C0009F2309E2A02307E2A12305E2A22303E24E
:1034D000A32301E2A423FFE1A523FDE1A623FBE151
:1034E000A723F9E1A823F7E1A923F5E1AA23F3E152
:1034F000AB23F1E1AC23EFE1AD23EDE1AE23EBE152
:10350000AF23E9E1B023E7E1B123E5E1B223E3E151
:10351000B323E1E1B423DFE1B523DDE1B623DBE151
:10352000B723D9E1B823D7E1B923D5E1BA23D3E151
:10353000BB23D1E1BC23CFE1BD23CDE1BE23CBE151
:10354000BF23C9E1C023C7E1C123C5E1C223C3E151
:10355000C323C1E1C423BFE1C523BDE1C623BBE151
:10356000C723B9E1C823B7E1C923B5E1CA23B3E151
:10357000CB23B1E1CC23AFE1CD23ADE1CE23ABE151
:10358000CF23A9E1D023A7E1D123A5E1D223A3E151
:10359000D323A1E1D4239FE1D5239DE1D6239BE151
:1035A000D72399E1D82397E1D92395E1DA2393E151
:1035B000DB2391E1DC238FE1DD238DE1DE238BE151
:1035C000DF2389E1E02387E1E12385E1E22383E151
:1035D000E32381E1E4237FE1E5237DE1E6237BE151
:1035E000E72379E1E82377E1E92375E1EA2373E151
:1035F000EB2371E1EC236FE1ED236DE1EE236BE151
:10360000EF2369E1F02367E1F12365E1F22363E150
:10361000F32361E1F4235FE1F5235DE1F6235BE150
:10362000F72359E1F82357E1F92355E1FA2353E150
:10363000FB2351E1FC234FE1FD234DE1FE234BE150
:10364000FF2349E14FF4807346E100BF40F20113CC
:1036500042E100BF4FF481733EE100BF40F203132B
:103660003AE100BF4FF4827336E100BF40F2051328
:1036700032E100BF4FF483732EE100BF40F2071325
:103680002AE100BF4FF4847326E100BF40F2091322
:1036900022E100BF4FF485731EE100BF40F20B131F
:1036A0001AE100BF4FF4867316E100BF40F20D131C
:1036B00012E100BF4FF487730EE100BF40F20F1319
:1036C0000AE100BF4FF4887306E100BF40F2111316
:1036D00002E100BF4FF48973FEE000BF40F2131314
:1036E000FAE000BF4FF48A73F6E000BF40F2151312
:1036F000F2E000BF4FF48B73EEE000BF40F217130F
:10370000EAE000BF4FF48C73E6E000BF40F219130B
:10371000E2E000BF4FF48D73DEE000BF40F21B1308
:10372000DAE000BF4FF48E73D6E000BF40F21D1305
:10373000D2E000BF4FF48F73CEE000BF40F21F1302
:10374000CAE000BF4FF49073C6E000BF40F22113FF
:10375000C2E000BF4FF49173BEE000BF40F22313FC
:10376000BAE000BF4FF49273B6E000BF40F22513F9
:10377000B2E000BF4FF49373AEE000BF40F22713F6
:10378000AAE000BF4FF49473A6E000BF40F22913F3
:10379000A2E000BF4FF495739EE000BF16239BE0AC
:1037A000172399E0182397E0192395E01A2393E053
:1037B0001B2391E01C238FE01D238DE01E238BE053
:1037C0004FF49B7388E000BF40F2371384E000BFE2
:1037D0004FF49C7380E000BF40F239137CE000BFDF
:1037E0004FF49D7378E000BF40F23B1374E000BFDC
:1037F0004FF49E7370E000BF40F23D136CE000BFD9
:103800004FF49F7368E000BF43F25820C2F20000FB
:103810003030106002235FE043F26410C2F2000017
:1038200014301060032357E043F26410C2F200002A
:103830001830106004234FE040F23C40C2F2000018
:103840001060052348E000BF43F26410C2F200009C
:103850002030106006233FE007233DE043F2641070
:10386000C2F200001C301060082335E0092333E069
:103870000C2331E00D232FE00E232DE00F232BE04E
:10388000102329E0112327E0122325E0132323E04E
:10389000142321E04FF496731EE000BF40F22D1375
:1038A0001AE000BF4FF4977316E000BF40F22F13E9
:1038B00012E000BF4FF498730EE000BF40F23113E6
:1038C0000AE000BF4FF4997306E000BF40F23313E3
:1038D00002E000BF4FF49A730020086040F2B45039
:1038E000C0F6010000EBC300704700009F2806D11E
:1038F000087800281EBF3020C0F209607047002001
:10390000704700002DE9F04381B001F0C7FB40F2A1
:103910004409C2F20009B9F9002044F67C28002AC3
:10392000C2F200082ED40146D9F8040008F11005AF
:1039300043184FF6FF7000264FF0020C4FF0030EB5
:103940000BE000BFFC1A2C60844238BF2046741C78
:1039500026B2964205F1180516DC15F8107CFF0713
:10396000F5D02F689F42EDD86F683FB1B1FBF7F4F7
:1039700005F810EC7C43641A3C44E4E705F810CCED
:10398000E5E700BF4FF6FF70C9F8040005F0F8FA4C
:10399000B9F9000000281DD408F10805002606E04A
:1039A000711C0EB201B28E4205F1180512DC15F839
:1039B000081C8A07F4D52A6801F0FD01002A05F8E1
:1039C000081CEDD055F8040C69689047B9F8000060
:1039D000E6E700BF01B0BDE8F08300002DE9F0414B
:1039E00040F20008C4F20208A8F5484540F204314C
:1039F000C0F20401284606F0BFFA002808BFBDE85F
:103A0000F081284606F048FA4046042101F0A0FA69
:103A1000044687B2002006F0FBF944F6AC41C2F23E
:103A200000010D884A88AE1A33B2002B48BF4036D9
:103A3000402F41D0C4F1400736B2BBB2C6F14006B8
:103A40009E4239D95E1E032E07F0030C44D2002398
:103A5000BCF1000F30D0AEB2012717FA85F73E2E29
:103A600088BF0027974204D0C55C0E4435713D469F
:103A70000F80BCF1010F1FD0AEB2012717FA85F7F6
:103A80003E2E88BF0027974205D05D1C455D0E4441
:103A900035713D460F80BCF1020F0DD0AFB201264B
:103AA00016FA85F63E2F88BF0026964204D09A1C4F
:103AB000805CCA1910710E804046042101F058F94B
:103AC00040460421402201F031FA40460421BDE87D
:103AD000F04101F061B900BFA3EB0C0E00230126F9
:103AE00003E000BF04339E45B2D0AFB216FA85F4AE
:103AF0003E2F88BF0024944204D0C55C0F443D7122
:103B000025460C80AFB216FA85F43E2F88BF0024FC
:103B1000944205D0C5186D780F443D7125460C8040
:103B2000ACB216FA85F73E2C88BF0027974205D025
:103B3000C518AD780C4425713D460F80AFB216FA1A
:103B400085F43E2F88BF00249442CBD0C518ED7871
:103B50000F443D7125460C80C4E700002DE9F0417B
:103B600040F20008C4F20208A8F5DE3540F2043144
:103B7000C0F20401284606F0FFF9002808BFBDE89E
:103B8000F081284606F088F94046052101F0E0F969
:103B9000044687B2012006F03BF944F63451C2F2E4
:103BA00000010D884A88AE1A33B2002B48BF403658
:103BB000102F41D0C4F1100736B2BBB2C6F1400697
:103BC0009E4239D95E1E032E07F0030C44D2002317
:103BD000BCF1000F30D0AEB2012717FA85F73E2EA8
:103BE00088BF0027974204D0C55C0E4435713D461E
:103BF0000F80BCF1010F1FD0AEB2012717FA85F775
:103C00003E2E88BF0027974205D05D1C455D0E44BF
:103C100035713D460F80BCF1020F0DD0AFB20126C9
:103C200016FA85F63E2F88BF0026964204D09A1CCD
:103C3000805CCA1910710E804046052101F098F889
:103C400040460521102201F071F940460521BDE8EA
:103C5000F04101F0A1B800BFA3EB0C0E0023012638
:103C600003E000BF04339E45B2D0AFB216FA85F42C
:103C70003E2F88BF0024944204D0C55C0F443D71A0
:103C800025460C80AFB216FA85F43E2F88BF00247B
:103C9000944205D0C5186D780F443D7125460C80BF
:103CA000ACB216FA85F73E2C88BF0027974205D0A4
:103CB000C518AD780C4425713D460F80AFB216FA99
:103CC00085F43E2F88BF00249442CBD0C518ED78F0
:103CD0000F443D7125460C80C4E7000070B586B0E6
:103CE00046F20044C4F20004204640F21A2100F0DB
:103CF000D7FE43F2E065C2F2000568B36888298800
:103D0000884224D005EB001101304A680B7A91F803
:103D10000AC0D1E903E681B23F2988BF002068804C
:103D2000D00A8DF80D3018BF012001A94FEA80009C
:103D30000B4618BF04338DF80C0020461A608DF82E
:103D40000EC0CDF80FE0CDF8136000F095FF2046CF
:103D50004FF4004100F03AFF204640F21B2100F0F2
:103D60009FFE60B368882988884223D005EB001144
:103D700001304A680B7A8E7AD1E903CE81B23F29AD
:103D800088BF00206880D00A8DF80D3018BF012050
:103D900001A94FEA80000B4618BF04338DF80C00D0
:103DA00020461A608DF80E60CDF80FC0CDF813E0F4
:103DB00000F062FF20464FF4024100F007FF20466A
:103DC0004FF4077100F06CFE60B368882988884260
:103DD00023D005EB001101304A680B7A8E7AD1E9C5
:103DE00003CE81B23F2988BF00206880D00A8DF8B9
:103DF0000D3018BF012001A94FEA80000B4618BF03
:103E000004338DF80C0020461A608DF80E60CDF852
:103E10000FC0CDF813E000F02FFF20464FF404410F
:103E200000F0D4FE06B070BD70B586B046F200401A
:103E300001ACC4F200000021224600F0CFFE43F2A4
:103E4000DC2CC2F2000CBCF80020511C8BB23F2BC2
:103E500088BF0021BCF8023088B2984216D09DF885
:103E60000C00DDF813E0DDF80F309DF80D509DF8E3
:103E70000E60002818BF043420680CEB021250605A
:103E800015725681C2E9033EACF8001006B070BD51
:103E90000020002102F004F8FAE70000B0B582B07B
:103EA000044601A9F12001224FF6FF7505F016FC2A
:103EB00010B1ADF8045011E0BDF8040045F25551C1
:103EC00088420BD10DF10601F220012205F006FC1B
:103ED00000280CBFBDF80600642000E06420BDF897
:103EE000041045F25552914208BFA04210D0F12073
:103EF0004FF6FF71022205F035FCF2202146022226
:103F000005F030FCF12045F25551022205F02AFC63
:103F10000DF10201F320012205F0E0FB10B1ADF834
:103F2000025011E0BDF8020045F2555188420BD114
:103F30000DF10601F420012205F0D0FB00280CBF92
:103F4000BDF80600642000E06420BDF8021045F2D0
:103F50005552914208BFA04210D0F3204FF6FF7196
:103F6000022205F0FFFBF4202146022205F0FAFBB5
:103F7000F32045F25551022205F0F4FB02B0B0BD2A
:103F8000704700002DE9F04383B01C46D0F8BC32E6
:103F90001546084602A901AA9847029921B1084688
:103FA00003B0BDE8F08300BF0179A9421ED90C9986
:103FB00031B1016805EB450211F82210C9071DD186
:103FC00024B30268DDF8288005EB450102EB81028D
:103FD0005368D8F80070BB421ED90521C8F80030DC
:103FE000C0F20451084603B0BDE8F0831121C0F2CD
:103FF0000961084603B0BDE8F08300BF0121C0F2AB
:104000000161084603B0BDE8F08300BF4FF00061D6
:10401000084603B0BDE8F0830B9B52781A70006825
:10402000092A00EB8100D0E901912DD1D8F80020B8
:104030000E78002A08BF4A460846B6B3012A084649
:1040400033DB881800228D18A6542B4613F8017F05
:1040500037B3834224D2A61877702B4613F8027F19
:1040600007B383421ED2B7702B4613F8037FDFB12C
:10407000834219D2F77015F8046F04320EB18542ED
:10408000E1D3881811E000BF20464A46FCF76CF8DF
:10409000C8F800900021084603B0BDE8F08300BFD7
:1040A000681C02E0A81C00E0E81C411AC8F80010D7
:1040B00049454FF0000138BF0170084603B0BDE824
:1040C000F083000070470000704700007047000058
:1040D0007047000070470000704700007047000004
:1040E00070470000704700002DE9F04F83B0834611
:1040F00090F8E60168B1DBF8140005894DB1DBF8F2
:104100001800B0F808A000205545CDE90100009046
:1041100004D9002003B0BDE8F08F00BF002900F0F3
:1041200083804FF000090320E8462E46002703282D
:1041300057D100BFDBF8040050F835004169096829
:1041400000294BD4026A1078411EC9B2EF2921D848
:10415000F9B2DBF80830C80050FA87F513F81500FB
:10416000441C03F815401078E2B2824212D103EBEE
:10417000450080F8009058464246CDF80890CDE9B9
:10418000009900F0BBFA98B3B5B255454FF00B005B
:10419000CDD9BEE7F0B1FC2820D1F9B2DBF8080098
:1041A000CA0052FA87F400EB4400821D584600F022
:1041B000A5FADBF80820002812F8141002EB4400DE
:1041C000B2B20CBF41F0010101F0FE015245017095
:1041D00007D99EE7F9B2584604F042FCB0B2504508
:1041E00097D80136B5B2554593D80137A2E700BF3D
:1041F000B0B250453FF68DAFDBF80800029ADDE91A
:10420000001300EB4500C0F80E20C0F80A30C0F8DB
:104210000610DBF8B802414600F05EFB0136B5B28D
:104220005545E2D975E700BF00262846DBF80410A3
:1042300051F8300041690968002911D4006A0078FA
:10424000FE280DD3F1B2DBF80800CA0052FA86F25C
:1042500010F81200C00703D1584604F001FC00BF5B
:10426000A8B250453FF655AF0135A8B2504506F10A
:104270000106DBD94DE700002DE9F04F83B01C4665
:10428000D0F8BC320E469046054602A901AA304637
:104290009847029921B1084603B0BDE8F08F00BFEE
:1042A0000746007940450FD90D993868A1B108EB50
:1042B000480110F8211002290ED10221C0F201613B
:1042C000084603B0BDE8F08F1121C0F2096108462D
:1042D00003B0BDE8F08F00BF0C9A08EB480A00EB72
:1042E0008A01106891F80190D1F804B0002818BF35
:1042F000584537D16A6A484621469047014600280A
:104300000290C8D138680C9900EB8A0080680A686E
:104310002146FBF729FF0C9BB9F1090F08D118685A
:10432000584505D23968002201EB8A0189680A5490
:104330000198C3F800B050B150F828303BB128467E
:10434000394642469847014600280290A3D1386872
:1043500010F82A00400713D40021084603B0BDE836
:10436000F08F00BFB9F1090F01D15845C2D3102118
:10437000C0F20761C2F800B0084603B0BDE8F08F94
:10438000D5F8C032284631464246984700210846B3
:1043900003B0BDE8F08F00007047000070470000D8
:1043A000816841F0080181608168090709D5816849
:1043B000090744BF81685FEA017102D58168090776
:1043C000F2D4816841F00401816003E0816849070B
:1043D00058BF70478168490706D58168490744BFBF
:1043E00081685FEA4171F1D47047000080B501290E
:1043F00008D0022918BF80BD4FF4401E6FF4401C46
:10440000382304E04FF4700E6FF4700C2C2319580D
:1044100001EA0C0119500EEB02511A5801EA0E0183
:104420001143195080BD00008268002922F4006207
:1044300018BF02F50062826070470000816841F495
:1044400080718160704700008168C90718BF70479C
:10445000816841F00101816070470000002A01F08D
:10446000010203D082B9890714D470471AB1826857
:1044700022F480128260890758BF7047816821F456
:1044800000418160704700BF826842F48012826000
:104490008907EAD5816841F40041816070470000D6
:1044A000012905D0022918BF70476FF4E04101E0EF
:1044B0006FF46021836819408160816811438160D5
:1044C0007047000080B5D0F838C0D0F838E0CCF3A1
:1044D000015CA1EB0C0101EB810101F10F0C1F212B
:1044E00001FA0CF12EEA010E02FA0CF141EA0E017A
:1044F000092A816304D800F1100C02EB420107E0A5
:10450000112A88BF80BD02EB420100F10C0C1E395C
:10451000DCF800200720884022EA000003FA01F1BD
:104520000843CCF8000080BD03298EBF002000EBBB
:104530008100C06B80B27047CA0703D0426842F066
:10454000400242608A0703D5426842F0200242607E
:10455000490758BF7047416841F08001416070478A
:10456000026822EA010101607047000042F2044142
:10457000C4F201010A6822F470220A600A6810433A
:1045800008607047D0F880C0B1F5007F2CF4007C43
:1045900008BF0CF5007CC0F880C0D0F880101A432A
:1045A00021F4FE71C0F88010D0F880101143C0F8DB
:1045B00080107047D0F8801041F00101C0F88010E1
:1045C0007047000080B505290ED8D0F834C001EB43
:1045D000810E1F2101FA0EF12CEA010C02FA0EF1F4
:1045E00041EA0C01416325E00B2911D801EB81015F
:1045F000D0F830C0A1F11E0E1F2101FA0EF12CEAF5
:10460000010C02FA0EF141EA0C01016312E000BF55
:1046100010290FD201EB8101D0F82CC0A1F13C0E82
:104620001F2101FA0EF12CEA010C02FA0EF141EA07
:104630000C01C162092A05D800F1100C02EB4201FD
:1046400008E000BF112A88BF80BD02EB420100F1E3
:104650000C0C1E39DCF800200720884022EA0000FC
:1046600003FA01F10843CCF8000080BDCA0703D06B
:10467000826842F480028260890758BF704781686F
:1046800041F4001181607047002A01F4807205D066
:10469000C2B94A051CD4890720D470471AB14268B0
:1046A00022F4807242604A0503D5426822F4806297
:1046B0004260890758BF7047816821F0020181601C
:1046C000704700BF426842F4807242604A05E2D5FA
:1046D000426842F4806242608907DED5816841F019
:1046E000020181607047000042F20840C4F20100FC
:1046F000016841F400010160704700002DE9F04FAE
:104700008FB04669476833890D4607EBC3010990AE
:10471000708951F8351007EBC006486956F8351016
:1047200000888F686FF3DF204FF0000A4FF0FF081A
:104730004FF00009002410801046089282F802A071
:104740000795CDE9057604E00A9C00BF38788145DD
:1047500076D2CDE90CAA56F8350009F1010909EB2A
:10476000490100EB81008068D0F800B05FFA8BF15E
:104770000029EBD00A19402AE8D801394FF0010C82
:104780000CEBD1010B910A9242780BA800900DF12D
:104790003B00CDE9010A09984FEA1B410CABCDF86B
:1047A0000CC0FFF7EFFB002854D15FEA0B60CBD0C1
:1047B000089904F0070001EBD401043100220CAB8E
:1047C000871A7DB21F4617F8016B6C425FFA80FCB6
:1047D00026FA04F4002DC8BF06FA05F4CCF1080649
:1047E00028FA06FCD8BFC2F108065FFA8BFEF6B2C3
:1047F000764588BF764656FA80F008FA00F5EDB2A5
:1048000045EA0C0591F800C0AC4305EA0C052544C7
:1048100032440D70D5B2072D84BF00223B4610F004
:10482000F807ABEB060B1CBF012750465FEA0B668F
:104830003944C5D10A9C079DDDE9057686E700BFAE
:10484000601E012101EBD0000899C87000200FB054
:10485000BDE8F08FFF200FB0BDE8F08FB1F800C0C9
:104860004FEADC130E2B88BF7047DFE803F02D13EF
:104870003309090909090909090B0B331D0000BF98
:1048800002F060BA90F8E221002A18BF02F000BCE2
:1048900020E000BFBCF1800F0ED190F8E411002998
:1048A00018BF03F0E9BE15E090F8E521002A18BF13
:1048B00002F0C4B90EE000BF90F8E321002A18BF4F
:1048C00002F050B906E000BF026A1278002A18BF51
:1048D00002F05AB97047000070B584B0CA780D88EC
:1048E000887800958DF80400ADF8062022B168465E
:1048F00008300431FBF738FC42F6EC66C2F20006E1
:1049000030686946A84201F1080405D172681AB1FD
:10491000284621469047009DB068854205D1F2683F
:104920001AB1A8B221469047009D3069854205D151
:1049300072691AB1A8B221469047009DB0698542BC
:1049400005D1F2691AB1A8B221469047009D306A9C
:10495000854205D1726A1AB1A8B221469047009DDE
:10496000B06A854205D1F26A1AB1A8B221469047D1
:10497000009D306B854205D1726B1AB1A8B22146F9
:104980009047009DB06B854205D1F26B1AB1A8B279
:1049900021469047009D306C854205D1726C1AB15A
:1049A000A8B221469047009DB06C854204D1F26CBC
:1049B00012B1A8B2214690476946002000F0EAFEF5
:1049C000002004B070BD000046F20041C4F20001B6
:1049D000884218BF704780B540F2194003F030FF9D
:1049E00040F21940BDE8804003F01ABFB0B546F26E
:1049F0000061C4F2000144890A684FF0010C42F0E2
:104A000001020A60CB690CFA04F5AB43CB61C389A0
:104A10006FEA050C012B11D02BBBCB6803EA0C030A
:104A2000CB60B0F806E0438843EA0E434FEAC40E79
:104A300001EBC404236403460EE000BFCB682B43A4
:104A4000CB60B0F800E0438843EA0E434FEAC40E5F
:104A500001EBC4042364831D84881B8843EA044358
:104A600001EB0E04636483894C68002B44EA050261
:104A700008BF04EA0C024A6002894B69002A43EA33
:104A8000050408BF03EA0C044C61007C012802D134
:104A9000C8692843C861086820F001000860B0BDFB
:104AA0008A09105801F01F01C84000F0010070474A
:104AB00010B5026840F2040C22F0020202600368A2
:104AC000CFF6FF7C43F00103036063464268D207E0
:104AD00004BF42685FEAC2720AD14268D20704BFCB
:104AE00042685FEAC27203D1002B03F10403EDD1E7
:104AF0004268D20704BF002010BD0A784B7891F8B5
:104B000002E0CC78920763F319620EF00F0342EAD9
:104B1000034204F007034C8942EA0352631E6FF319
:104B20009F231A44C2610A790368012A23F0800393
:104B300008BF803303604A790368012A23F04003E9
:104B400008BF403303608A790368012A23F02003F9
:104B500008BF20330360CA790368012A23F01003D9
:104B600008BF103303600A7A0368012A23F00803A0
:104B700008BF08330360497A0268012922F0040261
:104B800008BF04320260016821F001010160416840
:104B9000C90715D04168C9071CBF41685FEAC171E8
:104BA0000ED04268BCF1000F614618BF0121D20748
:104BB00004D0BCF1000F0CF1040CE8D1084610BD84
:104BC000012010BD4269114341617047C1F3841255
:104BD000012303FA02F2090B0A50704780B500EB7B
:104BE000011EDEF8B0C11CF004031372DEF8B0C180
:104BF00019BF4FEADC0353604FEA5C531360DEF8E1
:104C0000B031002903F002035372DEF8B4314FEAE9
:104C10001323D374DEF8B43103F00F039372DEF87C
:104C2000B831D372DEF8B8314FEA13231373DEF8CC
:104C3000B8314FEA13435373DEF8B8314FEA1363C8
:104C40009373DEF8BC31D373DEF8BC314FEA132323
:104C50001374DEF8BC314FEA13435374DEF8BC31F1
:104C60004FEA136393744FF0100208BF0C221158DF
:104C700041F02001115080BD10B50246806840010E
:104C80000AD49068000109D49068C0005CBF03207A
:104C900010BD022003E000BF002000E0012002EB75
:104CA0000012D2F8803103F00103C2F8803191F88C
:104CB00008C0BCF1000F03D04B684CEAC30C02E003
:104CC0000B684FEA435C4B7A91F80AE0D2F88041D6
:104CD00043EA0C032343C2F88031D2F8843123F035
:104CE0000F03C2F88431D2F8843143EA0E03C2F8CC
:104CF0008431D1F80B30C2F88831D1F80F10C2F8E6
:104D00008C11D2F8801141F00101C2F8801110BD60
:104D100081B1032810D8DFE800F003111B2300BF86
:104D20000020C0F2FF308860002048604FF400305F
:104D300008607047FEE700BFFEE700BF00204FF4A9
:104D400080320874CA60086048608860704700BF9D
:104D50000020C1F80F00C1E90000C1E9020070475E
:104D60000020C1E90000C1E90200086170470000AD
:104D700040F20042C4F20202904203D1052901D35D
:104D8000FEE700BF01EB810100EB8100816821F0AB
:104D9000010181607047000040F20042C4F202024B
:104DA000904203D1052901D3FEE700BF01EB810149
:104DB00000EB8100816841F00101816070470000D3
:104DC00040F20042C4F20202904203D1052901D30D
:104DD000FEE700BF01EB810100EB8100816841F03B
:104DE000200181607047000040F20042C4F20202DC
:104DF000904203D1052901D3FEE700BF01EB8102F8
:104E000000EB82029368890023F001039360002382
:104E10009360D360136153610F22436802FA01F17A
:104E2000194341607047000040F20043C4F202039E
:104E3000984203D1052901D3FEE700BF80B513686E
:104E400001EB810100EB8100036191684161118AEE
:104E5000C1608168536821F47C5CD168D2F814E0A9
:104E600043EA0C03194341EA0E018160117E836815
:104E7000012923F0400308BF40338360517E8368DB
:104E8000012923F0800308BF80338360917E82680C
:104E9000002922F0100218BF1032826080BD00008D
:104EA00040F20043C4F20203984203D1052901D322
:104EB000FEE700BF01EB810100EB81008168114337
:104EC000816070478900436802FA01F1194341602B
:104ED00070470000082A19D80123934013F48A7FF1
:104EE00014D08B0001EB8101D0F800C000EB8100F1
:104EF000806802FA03F31CEA030100EA020018BF0B
:104F00000121002818BF012008407047FEE700007B
:104F100050B10021C0F81710C0E90011C0E902111A
:104F2000C0E90411704700BFFEE7000040F20043F3
:104F3000C4F20203984203D1052901D3FEE700BF62
:104F400001EB810192B200EB8100C260704700006A
:104F500040F20042C4F20202904203D1052901D37B
:104F6000FEE700BF01EB810100EB8100C0687047E4
:104F7000B0B541F21523C0F6000341F2030100224F
:104F800004460025FCF79EFBD4F8E0020570B0BD96
:104F9000704700002DE9F04F85B01E46DDE90E8414
:104FA0000DF1130315468B46074600F091F8012DCD
:104FB00008BF00281AD0022D08BF002856D19DF83E
:104FC0001300039607F128064FF0580910FB0960FB
:104FD000B0F95200FBF77CFE9DF813A01AFB0961A3
:104FE000A1F852008520264688703AE09DF813A06B
:104FF00058201AFB0079B9F97A000396FBF768FE8E
:10500000A9F87A00D9F85C00002689F82860A9F888
:10501000306089F83260A9F82A60C9E90D66A9F8FC
:10502000646089F8666089F87860C9F87C60C9F8BE
:105030006860C9F86C600BF0DFF9C9E91766C9F858
:105040003C60C9F84060C9F84460C9F84860C9F8D4
:105050004C60C9F85060C9F85460C9F8586089F8C4
:10506000296058201AFB0070C662039E3846294604
:105070005A463346CDF80080019403F0D1FD002854
:1050800018BFFF2005B0BDE8F08F000043F200001C
:10509000C4F200004AF6AA210160704780B541F2CF
:1050A0000000C4F2000004F025FA43F25411C2F2E9
:1050B0000001D1E902314FF6FF72984238BF104427
:1050C000C91A084480BD00000068007870470000DD
:1050D00080B590F82AC0BCF1000F0DD0BCF1850F4F
:1050E0000AD090F828C08C4506D190F829C0944584
:1050F00002D10020D3BB54E090F882C0BCF1000F75
:105100000ED0BCF1850F0BD090F880C08C4507D134
:1051100090F881C0944503D101203BBB41E000BF22
:1051200090F8DAC0BCF1000F0ED0BCF1850F0BD0A7
:1051300090F8D8C08C4507D190F8D9C0944503D1D8
:1051400002209BB92DE000BF90F832C1BCF1000FE6
:1051500010D0BCF1850F0DD090F830C18C4509D12D
:1051600090F831C1944505D10320D3B14FF0000C24
:10517000187009E090F88AE14FF0FF0CBEF1000FC3
:1051800002D0BEF1850F01D1604680BD90F888C184
:105190008C4509D190F88901904205D10420002B5B
:1051A000E4D1002080BD00BFFF2080BD1023002A75
:1051B00008BF14231950704770B5CE0601F00F0CCC
:1051C00006D5042A42D1C26B4CF0030C1A43C263C9
:1051D00000F11002282900F1140E3FD048291BD1FC
:1051E00013F001045CD113F0020463D113F0040442
:1051F0006AD113F0080471D113F0100479D113F0BF
:10520000200440F0818013F0400440F0888013F0C7
:10521000800540F08F8024E1DC0740F08F809C0700
:1052200000F195805C0700F19B801C0700F1A180D4
:10523000DC0600F1A7809C0600F1AD805C0600F161
:10524000B3801C0600F1B8800BE100BF4CEA020CF1
:1052500000F11002282900F1140EBFD113F001044F
:1052600040F0AC8013F0020440F0B38013F004046B
:1052700040F0BA8013F0080440F0C18013F010042D
:1052800040F0C88013F0200440F0CF8013F04004B9
:1052900040F0D68013F0800540F0DC80E1E000BFF4
:1052A0000568046125F00F0545EA0C05056013F05B
:1052B00002049BD00568046125F0F00545EA0C1551
:1052C000056013F0040494D00568046125F470654A
:1052D00045EA0C25056013F008048DD005680461CB
:1052E00025F4704545EA0C35056013F010043FF4D1
:1052F00086AF0568046125F4702545EA0C45056014
:1053000013F020043FF47FAF0568046125F47005B5
:1053100045EA0C55056013F040043FF478AF05688A
:10532000046125F0706545EA0C65056013F08005A1
:1053300000F09780046805618EE000BF046824F0E7
:105340000F0444EA0C0404609C077FF56BAF04680B
:1053500024F0F00444EA0C1404605C077FF565AFA8
:10536000046824F4706444EA0C2404601C077FF58C
:105370005FAF046824F4704444EA0C340460DC0633
:105380007FF559AF046824F4702444EA0C440460A7
:105390009C067FF553AF046824F4700444EA0C546F
:1053A00004605C067FF54DAF046824F0706444EA45
:1053B0000C6404601C0654D504684DE00568446123
:1053C00025F00F0545EA0C05056013F002043FF4D3
:1053D0004DAF0568446125F0F00545EA0C15056000
:1053E00013F004043FF446AF0568446125F470658A
:1053F00045EA0C25056013F008043FF43FAF05684B
:10540000446125F4704545EA0C35056013F010043D
:105410003FF438AF0568446125F4702545EA0C4532
:10542000056013F020043FF431AF0568446125F4B2
:10543000700545EA0C55056013F040043FF42AAFAF
:105440000568446125F0706545EA0C65056013F058
:10545000800506D00468456124F0704444EA0C7469
:10546000046013F4807413D113F4007422D113F484
:10547000806431D113F4006440D113F480544FD1CF
:1054800013F400545ED113F480447CD06CE000BF70
:105490004568282925F00F0545EA0C0504D0482960
:1054A00004D1164601E000BF76463460456013F42F
:1054B0000074DCD04568482925F0F00545EA0C1554
:1054C00004D0282904D1764601E000BF1646346096
:1054D000456013F48064CDD04568482925F4706593
:1054E00045EA0C2504D0282904D1764601E000BF06
:1054F00016463460456013F40064BED04568482900
:1055000025F4704545EA0C3504D0282904D17646A7
:1055100001E000BF16463460456013F48054AFD0FC
:105520004568482925F4702545EA0C4504D028290A
:1055300004D1764601E000BF16463460456013F49E
:105540000054A0D04568482925F4700545EA0C555B
:1055500004D0282904D1764601E000BF1646346005
:10556000456013F480440ED04568482925F07065E5
:1055700045EA0C6504D0282904D1764601E000BF35
:1055800016463460456013F4004308BF70BD44689C
:10559000482924F0704444EA0C7502D0282901D12E
:1055A00072461360456070BD8068084018BF0120D6
:1055B00070470000B0B50422C4F20102134602F1A4
:1055C000180E002848BF73461C6800F44013B3F55A
:1055D000401F1FFA80FC07D1156824F0E06325F016
:1055E000E064146017E000BFC3020BD46FF00F0338
:1055F00003EA50430CFA03F324EA030343F0E063A5
:1056000009E000BFC0F30343032505FA03F324EACE
:10561000030343F0E0636FF00F0404EA50440029F1
:105620000CFA04F518BF2B43002848BF72461360DC
:10563000B0BD00002DE9F04182B041F2CD13C0F6BB
:10564000000341F21701002204464FF00008FCF766
:1056500039F8D4F8000284F8B482007810B340F628
:10566000E9254FF47A77C0F60005002603E000BF75
:105670000136864216D2D4F8041231F826100029D9
:10568000F6D001FB07F3204631462A46CDF80080CC
:10569000FCF75AF9D4F80812D4F8002221F81600C1
:1056A0001078E5E7D4F80C02008870B14FF47A71F5
:1056B00041F2593200FB01F3C0F6000220460021FE
:1056C0000093FCF741F9A4F8100202B0BDE8F081A4
:1056D000B0B50446D0F80002007888B1D4F80812BA
:1056E000002500BF31F91500FBF7F2FAD4F80812D3
:1056F000D4F8002221F81500107801358542F1D345
:10570000B4F91002FBF7E4FAA4F81002B0BD0000EF
:1057100080B549B1034658B114A204200A2100F013
:10572000F9FB002080BD00BF4FF0FF3080BD00BFFF
:1057300043F2DC20C2F20000428803889A4204BF90
:10574000002080BD00EB021202F1040E9EE808501A
:10575000126981E80850CA60418801318AB23F2A43
:1057600088BF00214180012080BD00BF43616E20C1
:105770005265616420506172612069732057726FB5
:105780006E672C2043616E4E6F203D202025640DF6
:105790000A000000B0B586B040B1034628A204203C
:1057A0000A2100F0B7FB002006B0B0BD46F200456C
:1057B000C4F2000528460C4604F0F2FA012823D171
:1057C000207922688DF80D00D00A18BF012001A9A8
:1057D0004FEA80000B4618BF04338DF80C00A07907
:1057E0001A6022898DF80E00D4F80A00ADF80F2057
:1057F000E289CDF811002846ADF81520FFF73CFAF4
:10580000012006B0B0BD00BF43F2E060C2F200006C
:105810000288511C8BB23F2B88BF002143888DB278
:105820009D42C0D000EB021294E82810E46802F117
:10583000040E8EE8281014610180012006B0B0BD6E
:1058400043616E20577269746520506172612069EE
:10585000732057726F6E672C2043616E4E6F203D30
:10586000202025640D0A0000B0B582B004460A2845
:105870000AD310A2042006210A23009400F04AFB58
:105880004FF0FF3002B0B0BD04F13200C0B20D469F
:1058900000F02CF810B1002002B0B0BD44F20811A5
:1058A00004EB8400C2F2000101EB4000857500208A
:1058B00002B0B0BD446F50776D20506172616D656C
:1058C0007465722069732077726F6E672C20446F45
:1058D00050776D4D6178203D2025642C20446F5019
:1058E000776D203D2025640D0A00000080B582B050
:1058F00043F22412C2F200021168844661B142F6FA
:105900003C70C2F200000088604515D911F82C00E7
:1059100000F0010002B080BDBCF1FF0F12D0CCF34B
:10592000421002EB800040680CF01F01C84000F0FC
:10593000010002B080BD00BF42F66C42C0F6010219
:1059400006E000BF42F6AB424FF0FF0CC0F601028A
:1059500004200C21FF23CDF800C000F0DBFA4FF04B
:10596000FF3002B080BD000080B582B043F2241247
:10597000C2F200021168844681B142F63C70C2F264
:105980000000008860451DD911F82C0000F0FE00D1
:1059900001F82C00002002B080BD00BFBCF1FF0F59
:1059A00016D0CCF3421302EB83020CF01F0001214E
:1059B000536801FA00F023EA00005060002002B0B2
:1059C00080BD00BF42F66C42C0F6010206E000BF97
:1059D00042F6AB424FF0FF0CC0F6010204200C214E
:1059E000FF23CDF800C000F095FA4FF0FF3002B071
:1059F00080BD000010B582B043F22412C2F2000252
:105A000011680446002900F0838042F63C70C2F21F
:105A100000000088A04240F2908011F8240040F07D
:105A2000010001F82400B82000F096F8A0426CD0E4
:105A3000B82000F091F881B2B92000F06DFAB920D9
:105A400000F08AF881B2BA2000F066FABA2000F0BD
:105A500083F881B2BB2000F05FFABB2000F07CF835
:105A600081B2BC2000F058FABC2000F075F881B279
:105A7000BD2000F051FABD2000F06EF881B2BE20CA
:105A800000F04AFABE2000F067F881B2BF2000F0B3
:105A900043FABF2000F060F881B2C02000F03CFA69
:105AA000C02000F059F881B2C12000F035FAC120C1
:105AB00000F052F881B2C22000F02EFAC22000F0AD
:105AC0004BF881B2C32000F027FAC32000F044F85D
:105AD00081B2C42000F020FAC42000F03DF881B269
:105AE000C52000F019FAC52000F036F881B2C620B2
:105AF00000F012FAC62000F02FF881B2C72000F0A3
:105B00000BFA611CB82000F007FA002002B010BDAB
:105B1000FF2C11D0C4F3421302EB830204F01F00E8
:105B20000121536801FA00F018435060B82000F0DA
:105B300013F8A042E9D07BE7FF2442F6AB42C0F65F
:105B4000010204200C21FF23009400F0E3F94FF040
:105B5000FF3002B010BD0000F4288FBF4FF0FF30BF
:105B600044F29051C2F2000131F810007047000079
:105B700044F6781100EB4000C2F2000101EBC000D6
:105B80008068704710B504460F280BD342F61752B1
:105B9000C0F6010204200821234600F0BBF94FF0B3
:105BA000FF3010BDA01E05282BD8DFE800F0030B46
:105BB00013232A1B4620FFF799FE00281CBF002054
:105BC00010BD1EE04720FFF791FE00281CBF0020FB
:105BD00010BD16E04820FFF789FE00281CBF0020FA
:105BE00010BD0EE04920FFF781FE00281CBF0020F9
:105BF00010BD06E04A20FFF779FE00281CBF0020F8
:105C000010BD43F2AC20C2F2000050F8240010BDD9
:105C100080B503460F280BD342F61752C0F6010297
:105C20000420082100F076F94FF0FF3080BD00BF5E
:105C30000E2B4FF0000088BF80BDDFE803F0090F96
:105C40001F2B374D595F75DA7B8B9BA9C10000BFB5
:105C500043F2AC20C2F20000006804E043F2AC2042
:105C6000C2F200004068FAF738FC9FED6F0B53EC6E
:105C7000102BFAF751FBFAF76DFC80BD4620FFF7B9
:105C800035FE002840F0A08043F2AC20C2F20000B4
:105C9000806864E04720FFF729FE002840F09480E8
:105CA00043F2AC20C2F20000C06858E04820FFF781
:105CB0001DFE002840F0888043F2AC20C2F20000B4
:105CC0000069FAF70AFC9FED560B53EC102BFAF71C
:105CD00023FBFAF73FFC80BD4A20FFF707FE0028B0
:105CE00072D143F2AC20C2F20000406910E000BF64
:105CF00043F2AC20C2F20000806920E04920FFF7A7
:105D0000F5FD002860D143F2AC20C2F20000C0696A
:105D1000FAF7E3FB9FED400B53EC102BFAF7FCFA7C
:105D2000FAF718FC80BD00BF43F2AC20C2F20000BD
:105D3000006A14E043F2AC20C2F20000806AFAF775
:105D4000CCFB9FED310B53EC102BFAF7E5FAFAF789
:105D500001FC80BD43F2AC20C2F20000C06AFAF739
:105D6000BCFB9FED270B53EC102BFAF7D5FAFAF793
:105D7000F1FB80BD4620FFF7B9FD28BB01200121C2
:105D800000F08EF843F2AC20C2F2000080680CE014
:105D90004720FFF7ABFDB8B90220012100F080F8E1
:105DA00043F2AC20C2F20000C068FAF796FB9FED08
:105DB000120B53EC102BFAF7AFFAFAF7CBFB80BDBE
:105DC0004820FFF793FD08B1002080BD032001218A
:105DD00000F066F843F2AC20C2F200000069FAF766
:105DE0007CFB9FED0B0B53EC102BFAF795FAFAF7AF
:105DF000B1FB80BD00BF00BFBFF690CB8A817A3F68
:105E00000000000000C8F93F0000000000561340E9
:105E1000CD31FE47E9C9863F00000000000C22405A
:105E2000703E06E7632A0640F2F0F0F090BF314082
:105E300080B582B0844614280CD30AA20420042121
:105E40001423CDF800C000F065F84FF0FF3002B029
:105E500080BD00BF44F2B800C2F2000010F80C0090
:105E600002B080BD4C6F63616C4469205061726107
:105E70006D657465722069732077726F6E672C2070
:105E80004C6F63616C44694D6178203D2025642C22
:105E9000204C6F63616C4469203D2025640D0A002D
:105EA00080B582B0844606280CD30BA204200521BD
:105EB0000623CDF800C000F02DF84FF0FF3002B0FF
:105EC00080BD00BF44F67420C2F2000000F80C1040
:105ED000002002B080BD00BF4C6F63616C446F2036
:105EE000506172616D657465722069732077726F9D
:105EF0006E672C204C6F63616C446F4D6178203D60
:105F00002025642C204C6F63616C446F203D20255C
:105F1000640D0A0000207047F4288FBF4FF0FF3057
:105F200044F29052C2F2000222F8101098BF0020F2
:105F3000704700002DE9F041A1B3904603460128C7
:105F400034D0002B62D144F6AC4CC2F2000CBCF849
:105F50000070BCF80240381B03B2002B48BF403031
:105F600003B29845C8BF98461FFA88F0984254DC9F
:105F70005FEA084351D0A74252D1002141F001020B
:105F800012B2904249DD41F0020212B2904244DD69
:105F900041F0030212B290423FDD04310AB2904256
:105FA000ECDC3AE04FF0FF30BDE8F08144F6345CC1
:105FB000C2F2000CBCF80070BCF80240381B03B2FF
:105FC000002B48BF403003B29845C8BF98461FFA1F
:105FD00088F0984221DC5FEA08431ED0A7423BD1FB
:105FE000002100BF41F0010212B2904215DD41F0E4
:105FF000020212B2904210DD41F0030212B290424E
:106000000BDD04310AB29042ECDC06E020A2042051
:1060100000214FF00008FFF77DFF4046BDE8F0810A
:1060200000260025BBB2A2B29A423B460CD01CFA15
:1060300084F212798A55BCF80220531C9AB23F2A86
:1060400088BF0023ACF8023001352EB2B042E4DD47
:10605000BCF800701C46E5E700260025BBB2A2B2E2
:106060009A423B460CD01CFA84F212798A55BCF84D
:106070000220531C9AB23F2A88BF0023ACF802309A
:1060800001352EB2B042C8DDBCF800701C46E5E711
:1060900052656164205561727420506172616D6552
:1060A000746572206973204572726F722C2055617D
:1060B00072744E6F203D2025640D0A00F0B581B04A
:1060C000154601280C465FD0002840F0B58000201E
:1060D00003F092FE002800F0B38044F6F041C2F2D3
:1060E00000010B884A889F1A38B2002848BF403701
:1060F000002D4FF0000000F09C803FB2C7F1400738
:10610000AF4240F29680681E032805F0030C80F031
:10611000A7800020BCF1000F00F096809FB20126FE
:1061200016FA83F63E2F88BF0026964204D0235CE1
:106130000F443B7133460E80BCF1010F00F08480A8
:106140009DB2012717FA83F63E2D88BF002696429E
:1061500005D0431CE35C4F193B7133460E80BCF104
:10616000020F71D09FB2012616FA83F33E2F88BF2B
:106170000023934268D00230205CCA1910710B8052
:10618000002001B0F0BD00BF012003F035FE002863
:106190005ED044F67851C2F200010B884A889F1AFB
:1061A00038B2002848BF4037002D4FF0000040D0E3
:1061B0003FB2C7F14007AF423BD9681E032805F044
:1061C000030C80F08F800020BCF1000F3CD09FB208
:1061D000012616FA83F63E2F88BF0026964204D089
:1061E000235C0F443B7133460E80BCF1010F2BD072
:1061F0009DB2012717FA83F63E2D88BF00269642EE
:1062000005D0431CE35C4F193B7133460E80BCF153
:10621000020F19D09FB2012616FA83F33E2F88BFD2
:106220000023934210D00230205CCA191071002064
:106230000B8001B0F0BD00BF4FF0FF3001B0F0BDEA
:106240002046294605F0DEFE002001B0F0BD00BF6B
:106250002046294605F0F2FE002001B0F0BD00BF47
:1062600025F0030E0020012504E000BF0430864520
:106270003FF450AF9FB215FA83F63E2F88BF002639
:10628000964204D0235C0F443B7133460E809FB28C
:1062900015FA83F63E2F88BF0026964205D02318B4
:1062A0005B780F443B7133460E809FB215FA83F63C
:1062B0003E2F88BF0026964205D023189B780F44B6
:1062C0003B7133460E809FB215FA83F63E2F88BF8E
:1062D00000269642CAD02318DB780F443B71334620
:1062E0000E80C3E725F0030E0020012504E000BF67
:1062F000043086453FF468AF9FB215FA83F63E2F0F
:1063000088BF0026964204D0235C0F443B7133467D
:106310000E809FB215FA83F63E2F88BF0026964264
:1063200005D023185B780F443B7133460E809FB233
:1063300015FA83F63E2F88BF0026964205D0231813
:106340009B780F443B7133460E809FB215FA83F65B
:106350003E2F88BF00269642CAD02318DB780F4410
:106360003B7133460E80C3E72DE9F04782B0DDE98B
:106370000A980E46A8F102019A46154603290746D7
:1063800016D841F2F1624CF2C0634FF0000CC0F637
:106390000002C0F22D0338463146CDF800C0FBF7AD
:1063A000D3FA582116FB0171A1F87A0009E000BF69
:1063B000582016FB0074B4F97A00FAF789FCA4F8A7
:1063C0007A00582016FB0074E06D84F828500025F0
:1063D000A4F830A084F8329084F82A8084F82B50F6
:1063E000C4E90D55A4F8645084F8665084F87850D8
:1063F000E567A566E56609F0FFFFE565002025660F
:1064000002B0BDE8F08700002DE9F041582711FBEC
:10641000070C5CF838EF5CF8044C0EEB0205A54263
:1064200002D9FF20BDE8F081202C33D8002A3ED0CD
:106430005825002411FB0500002100BF04EB0E05C8
:10644000054495F83C6041F00105EDB295421E55BA
:106450002DD20EEB0504044494F83C6041F0020494
:10646000E4B294425E5522D20EEB0405054495F841
:106470003C6041F00305EDB295421E5517D20EEB7C
:1064800005040444043194F83C60CCB294425E5557
:10649000D4D30CE0582411FB040050F85C1F0029F1
:1064A000BFD022B111F80E10012A197008D1DCF802
:1064B00000001044CCF800000020BDE8F08100BFCF
:1064C00001214FF002080126012500BF076806EBF5
:1064D0000E043C5D51FA85F797429C55E7D204685B
:1064E0000EEB0706A45D58FA85F69642DC55DED21F
:1064F00004680EEB0607E45DEF1CFFB297429C5563
:10650000D5D204680EEB07060435A45DEEB29642C0
:10651000DC55DBD3CBE7000082B072B602F06AFE36
:1065200004F026F807F068F906F0F8FD07F0C6F861
:1065300041F2883009F0A8FD04F03AFF07F064FF4B
:1065400003F0ACFE03F01AFF07F0AEFA09F014F9FD
:106550002C20FAF78DFA42F64C34C0F60104ECA375
:1065600004200E21224662B6FFF7D4FCEFA30420DC
:106570000E212246FFF7CEFCF3A7F6A20FF2F0336E
:1065800004200E210097FFF7C5FC00200522002300
:1065900008F072F801200522002308F06DF80220AF
:1065A0006422002308F068F80F204FF4FA720023E9
:1065B00008F062F80D204FF4FA72002308F05CF83E
:1065C0002D204FF4FA72002308F056F8EBA20320B6
:1065D0000E21FFF79FFC00200121FFF761FC43F62D
:1065E0002E459FEDC98B42F69F37C2F20005C0F6DB
:1065F00001070FF2983801E005F0D6FE0D2003F0F8
:10660000E7FB012804D1FAF7F7FC0D2006F00CF99E
:10661000002003F0DDFB01280AD0012003F0D8FBA5
:10662000012828D00F2003F0D3FB01282DD031E022
:10663000002008F013F8022009F082FE06F026FB85
:1066400004F01AFA06F01EFD07F0B6FD03F0D0FCC8
:1066500004F0EEFE06F0F2FE03F052FF03F05AFEE5
:1066600003F0B8FE07F09CFA09F040FA012003F0AD
:10667000AFFB0128D6D106F0E9F8012007F0EEFFC4
:106680000F2003F0A5FB012804D103F097FB00289D
:1066900000F02C81022003F09BFB012804D109F0BB
:1066A00023FD022007F0DAFF2D2003F091FB0128E3
:1066B000A2D10020FFF7BCFB0138B0FA80F04FEA0E
:1066C00050190120FFF7B4FB01284FF0020008BF6A
:1066D00009F10209FFF7ACFB01284FF0030008BFE6
:1066E00009F10409FFF7A4FB01284FF0040008BFDB
:1066F00009F10809FFF79CFB01284FF0050008BFCE
:1067000049F01009FFF794FB01284FF0060008BF7D
:1067100049F02009FFF78CFB01284FF0070008BF64
:1067200049F04009FFF784FB01284FF0080008BF3B
:1067300049F08009FFF77CFB01284FF0090008BFF2
:1067400049F48079FFF774FB01284FF00A0008BF75
:1067500049F40079FFF76CFB01284FF00B0008BFEC
:1067600049F48069FFF764FB01284FF00C0008BF73
:1067700049F40069FFF75CFB01284FF00D0008BFEA
:1067800049F48059FFF754FB01284FF00E0008BF71
:1067900049F40059FFF74CFB01284FF00F0008BFE8
:1067A00049F48049FFF744FB01284FF0100008BF6F
:1067B00049F40049FFF73CFB01284FF0110008BFE6
:1067C00049F48039FFF734FB01284FF0120008BF6D
:1067D00049F40039FFF72CFB01284FF0130008BFE4
:1067E00049F48029FFF724FB0128288808BF49F4D1
:1067F0000029F9F783FE5AEC18BB5A465346F9F7BD
:106800008BFD41EC100B42F6E73201200E21C0F661
:1068100001028DED000BFFF77DFB6888F9F76EFE36
:106820005A465346F9F778FD41EC100B42F6014207
:1068300001200E21C0F601028DED000BFFF76AFB6F
:10684000DC20FFF789F942F65232034601200E217F
:10685000C0F60102FFF75EFB42F61B4201200E214B
:10686000C0F601024B46FFF755FB0020FFF7D0F9B9
:1068700042F66532034601200E21C0F60102FFF701
:1068800049FB0120FFF7C4F904460120FFF77AF91C
:1068900042F6BA32060301200E21C0F60102234659
:1068A0000096FFF737FB0220FFF7B2F942F6843279
:1068B000034601200E21C0F60102FFF72BFB032047
:1068C000FFF7A6F9034601200E213A46FFF722FB07
:1068D0000420FFF79DF9034601200E214246FFF7F1
:1068E00019FB2D2007F0BAFE86E600BF03F0D2FDAB
:1068F0000F2007F0B3FE022003F06AFA01283FF4EC
:10690000CEAED1E600BF00BF2D431CEBE2365A3FAE
:1069100051505F4543555F48573A20323330353246
:10692000365F56312E30302E3030000051505F45EA
:1069300043555F53573A203233303532365F563144
:106940002E30302E3030000031313A34323A35308A
:1069500000000000436F6D70696C653A20446174FB
:10696000613A25732054696D653A25730A00000069
:10697000417072202033203230323500456375205B
:106980006973205265616479210D0A0041495F42B3
:106990005F4149335F522041692056616C75652023
:1069A0003D2025640D0A000080B584B0D0F8B802FF
:1069B0004FF000738DF8091001A901938DF808209C
:1069C000FDF78AFF04B080BD4EF60C5CCEF2000CE1
:1069D000DCF8003003F4E063B3F5E06F02D1042388
:1069E0002FE000BFDCF8003003F4E063B3F5C06FC4
:1069F00002D1032325E000BFDCF8003003F4E0639C
:106A0000B3F5A06F02D102231BE000BFDCF8003019
:106A100003F4E063B3F5806F02D1012311E000BFFE
