:020000040800F2
:10400000F8550020454100081952000849500008A1
:104010000D520008214B0008BD7E00080000000082
:10402000000000000000000000000000955900089A
:10403000294D000800000000B1530008015B000892
:104040005F4100085F4100085F4100085F410008D0
:104050005F4100085F4100085F4100085F410008C0
:104060005F4100085F4100085F4100085F410008B0
:104070005F4100085F410008D14B00085F41000824
:104080005F4100087D4C0008ED470008597C00089E
:10409000557E00085F4100085F4100085F4100084D
:1040A0005F410008E95C00085F4100085F410008CB
:1040B0005F4100085F4100080D5D00085F41000896
:1040C0005F4100085F4100085F4100085F41000850
:1040D0005F41000869790008E17A00085F41000843
:1040E000614D00085F4100085F4100085F41000822
:1040F0005F4100085F4100085F4100085F41000820
:104100005F4100085F4100085F4100085F4100080F
:104110005F4100085F410008615D0008995D00088B
:104120005F4100085F4100085F4100085F410008EF
:10413000DFF80CD000F01CFB0048004749A4000841
:10414000F85500200648804706480047FEE7FEE78E
:10415000FEE7FEE7FEE7FEE7FEE7FEE7FEE7FEE737
:10416000055B00083141000840EA01039B0703D0CA
:1041700009E008C9121F08C0042AFAD203E011F8A6
:10418000013B00F8013B521EF9D27047D2B201E068
:1041900000F8012B491EFBD270470022F6E710B54C
:1041A00013460A4604461946FFF7F0FF204610BDA5
:1041B00030B504460020034600E05B1C934203D266
:1041C000E05CCD5C401BF8D030BD2DE9FE4F804651
:1041D00081EA0300C00F0C46009021F0004123F05B
:1041E0000045B8EB0200A94105D240462146904661
:1041F0001C460B46024623F00040104347D0270DD3
:10420000C7F30A00C3F30A510290401A01904028F4
:104210006BDAC3F3130040F4801B0098924620B180
:104220000023D2EB030A63EB0B0B01985946C0F154
:104230004002504600F0D6F906460D465046594613
:10424000019A00F0EEF910EB08006141002487EAC2
:10425000115284EAE7731A4340D0009A62B3019A7C
:10426000012A4FEA075215DC001B61EB02014FF0F7
:10427000004202EA0752CDE90042001C41F58011DC
:1042800032462B4600F025FA03B0BDE8F08F4046D9
:104290002146F9E7001B61EB0201001C41F5801388
:1042A00000185B412018A2F5001747EB030140EA14
:1042B000D570B6196D4111E06D084FEA360645EA32
:1042C000C0754FEA0752001B61EB0201001C41F56B
:1042D000801149084FEA30000019514132462B46FF
:1042E00003B0BDE8F04F00F0E5B9009801224000AE
:1042F0000023D0EB020263EBE073009821464FEA03
:10430000E074B8EB000061EB0401E9E783F00043DF
:104310005BE781F0004158E72DE9FE4F81EA030495
:1043200004F0004421F0004100944FF0000B23F012
:10433000004350EA01045ED052EA03045BD0C3F3A9
:104340000A54C1F30A552C44A4F2F3340194A0FB9F
:104350000254C1F3130141F48011C3F3130343F476
:10436000801301FB024400FB034E840A970A44EACF
:10437000815447EA8357A4FB076802958D0A05FB21
:1043800007854FEA932C04FB0C542705029D4FEA46
:10439000065847EA1637B5EB08056EEB070C870E93
:1043A000920E47EA811742EA8312A7FB0201B6EB9D
:1043B0000B0164EB00042B0D43EA0C335E1844EB55
:1043C0001C50DA465146E7FB0201C5F313044FEADD
:1043D0000B3343EA14534FEA0432019C43EA0603C9
:1043E000A4F10C040294009CCDE900B400F071F932
:1043F00003B0BDE8F08F00200146F9E72DE9F04D4C
:1044000081EA030404F0004B21F0004514464FF00C
:10441000000A23F0004150EA050220D054EA0102CC
:104420001DD0C5F30A570246C5F31303C1F31300A9
:10443000C1F30A5640F4801543F48013A7EB060835
:10444000101BD64608F2FD3873EB050002D308F1C5
:10445000010801E092185B41B8F1000F03DA002077
:104460000146BDE8F08D00204FF4801106468446D9
:104470000EE0171B73EB050705D3121B63EB050357
:1044800006434CEA010C49084FEA300092185B41A0
:1044900050EA0107EDD152EA030012D082EA04008B
:1044A00083EA0501084305D0101BAB4106D2012267
:1044B000002306E000224FF0004302E06FF001020B
:1044C00053101AEB06004CEB085110EB0A0041EBBD
:1044D0000B01BDE8F04D00F0EDB80EB5C10F80EA5C
:1044E000E0700844CA07002140F233438DE80E0013
:1044F0000A460B4600F0EDF803B000BD0EB540F2E1
:10450000334102910021CDE900110A460B4600F02B
:10451000E0F803B000BD70B5C1F30A5201F00045E8
:104520000024C1F3130140F2FF3341F480119A4299
:1045300001DA002070BD40F233439A42A2F23342C6
:1045400003DC524200F05DF800E090402C43F1D0D3
:10455000404270BDC1F30A5210B5C1F3130140F2DD
:10456000FF3341F480119A4201DA002010BD40F27D
:1045700033439A42A2F2334203DC524200F041F844
:1045800010BD904010BD00F0004230F000400AD055
:10459000C10D01F56071C0F3160042EA0151C20875
:1045A00040071143704700200146704701F0004367
:1045B00030B421F0004150EA010206D00A0DA2F504
:1045C0006072C1F31301002A02DC30BC0020704786
:1045D000440F44EAC104C100E01830BC00EBC250F3
:1045E00000F031B8202A04DB203A00FA02F1002062
:1045F00070479140C2F1200320FA03F31943904021
:104600007047202A04DB203A21FA02F0002170478B
:1046100021FA02F3D040C2F120029140084319462A
:104620007047202A06DBCB17203A41FA02F043EA12
:10463000E07306E041FA02F3D040C2F1200291405B
:104640000843194670470029A8BF7047401C49001D
:1046500008BF20F00100704710B4B0FA80FC00FAE7
:104660000CF050EA010404BF10BC704749B1CCF112
:10467000200421FA04F411FA0CF118BF012121439E
:104680000843A3EB0C01CB1D4FEA00614FEA102059
:1046900042BF002010BC704700EBC35010440029FB
:1046A000A4BF10BC7047401C490008BF20F00100A7
:1046B00010BC704710B5141E73F1000408DA401CDA
:1046C00041F1000192185B411A4301D120F0010031
:1046D00010BD2DE9F04D92469B4611B1B1FA81F221
:1046E00002E0B0FA80F220329046FFF77BFF0446EA
:1046F0000F4640EA0A0041EA0B0153465A46084376
:1047000013D0114653EA010019D0C8F140025046B7
:10471000FFF777FF05460E46504659464246FFF7DB
:1047200061FF084305D0012004E020463946BDE87A
:10473000F08D0020054346EAE0762C4337430A9883
:104740006305E40AA0EB08000022FD0A44EA47548E
:104750000A3002D500200146E9E701051019694138
:10476000DDE9084500196941BDE8F04DA2E7000008
:10477000064C074D06E0E06840F0010394E80700AE
:1047800098471034AC42F6D3FFF7D6FC606C0108B2
:10479000806C010870B58C1810F8015B15F00703E8
:1047A00001D110F8013B2A1106D110F8012B03E0CA
:1047B00010F8016B01F8016B5B1EF9D12B0705D4D2
:1047C0000023521E0DD401F8013BFAE710F8013B1B
:1047D000CB1A921C03E013F8015B01F8015B521E37
:1047E000F9D5A142D8D3002070BD0000B0B542F287
:1047F0000044C4F201042046042103F0D3FE204605
:10480000002103F0B3FE43F66845C2F2000528809C
:1048100004F58060002103F0A9FE68802046012194
:1048200003F046FF002006F02DF92988044608030E
:10483000C4F88800002005F0A3F90146204600F0E6
:10484000DDFDD4F8AC000028C4F8840014BFD4F80F
:10485000CC10D4F8D01009B120468847012006F0CA
:1048600011F9698804460803C4F88800012005F09E
:1048700087F90146204600F0C1FDD4F8AC00C4F829
:10488000840040B1D4F8CC1009B120468847BDE877
:10489000B0400AF005BAD4F8D0100029F7D020466D
:1048A0008847BDE8B0400AF0FBB900002DE9F041AF
:1048B00042F69878C2F2000898F8040000215128C6
:1048C000A8F81A100DD3D8E90212914218DAB8F8F4
:1048D00010100131A8F8101089B2B1F5897F21D9E3
:1048E00084E0322830D3D8E9021291423BDAB8F89A
:1048F00010100131A8F8101089B2E12944D375E0F5
:10490000D8F81420914207DDB8F818100131A8F842
:1049100018100121A8F81A10B8F8101089B2B1F5D2
:10492000897F63D8B8F81810E32934D905300021FD
:10493000C2B2A8F81810A8F81010642A28BF642082
:1049400088F80400053890E01E2827D3D8E9021221
:1049500091423ADAB8F810100131A8F8101089B273
:10496000A02943D275E0D8F81420914207DDB8F8A9
:1049700018100131A8F818100121A8F81A10B8F879
:10498000101089B2E12931D2B8F81810E32964D89F
:1049900098F8050079E098F8050076E0052838BF1A
:1049A000BDE8F081D8E90212914230DAB8F810106F
:1049B0000131A8F8101089B2962939D0B8F818102A
:1049C000E3294AD898F805005FE0D8F8142091420E
:1049D00007DDB8F818100131A8F818100121A8F85F
:1049E0001A10B8F8101089B2A02932D38022002101
:1049F000A8F81820421F0A38A8F8101088F80420D8
:104A000088F8050088F81C10A8F828103DE0D8F8B0
:104A10001420914207DDB8F818100131A8F81810D9
:104A20000121A8F81A10B8F8101089B29629C5D13A
:104A30008022A8F81820421FD3B20021042BA8F826
:104A4000101088F8042015D8052088F804000020EC
:104A500013E0B8F81810E32915D90021421DA8F871
:104A60001810A8F8101088F8042088F8050088F8B5
:104A70001C100AE00A3888F81C10002188F805008C
:104A8000A8F8281001E098F80500C1B2642564294F
:104A900028BF2846C1B20526052998BF30464CF6E6
:104AA000CD47C0B2CCF6CC47A0FB0701142498F840
:104AB0000700A4EB910146F61043C9B246F61C026A
:104AC000C0F60103C0F60102012808BF134653F8DF
:104AD00021004FF080710FF05BFB98F804106429FF
:104AE00038BF0D46052D98BF3546A5FB0712A4EB30
:104AF000920146F6B402C9B2C0F6010202EB81018E
:104B000091ED000AC8F80C00BDEEC00A10EE100AC4
:104B10004FF080710FF03CFBC8F81400BDE8F08145
:104B20000020002105F0B4F9FAE70000B0B584B028
:104B300004460DF023FC40F2047007F00DFE41F234
:104B40000005C4F20005284608F082FC772000909A
:104B50004FF6FF700290002001908DF80C0069461E
:104B6000284608F0E3FC36200121012205F0D8FE9A
:104B70002846012108F036FD284608F0D1FC40F215
:104B80005005C2F200052846214608F051F8284693
:104B9000002108F027F92846052108F023F904B080
:104BA000B0BD000080B5D0E9812E4FF6FF7302EB57
:104BB00081029278D0F814C22EF8113083184FF089
:104BC000010E114683F818E2BDE8804060470000FE
:104BD00070B590B00024C4F20204204603210222E2
:104BE00004F09AF9002846D020460321022204F05E
:104BF0008BF92046032104F0DDF8002000210DF0A0
:104C0000B7FB44F6285EC2F2000EBEF80020BEF8E4
:104C10000200111A0BB2002B48BF40310DB22B46D7
:104C2000402DA8BF402399B2A94220DC1B041ED00E
:104C30000025EC460346002411E000BF1EFA83F372
:104C40001B7901300CF8053083B23F2B88BF002060
:104C50000346AEF80200013425B2A94207DD9EB238
:104C60009642EBD11346013425B2A942F7DC11B1CB
:104C700068460AF095FF10B070BD000070B584B0B2
:104C80000024C4F2020420460621022204F044F962
:104C9000002846D020460621022204F035F920469D
:104CA000062104F087F8012000210DF061FB44F695
:104CB000B05EC2F2000EBEF80020BEF80200111A6B
:104CC0000BB2002B48BF40310DB22B46102DA8BFB0
:104CD000102399B2A94220DC1B041ED00025EC460B
:104CE0000346002411E000BF1EFA83F31B79013054
:104CF0000CF8053083B23F2B88BF00200346AEF886
:104D00000200013425B2A94207DD9EB29642EBD1E2
:104D10001346013425B2A942F7DC11B168460AF006
:104D20005BFF04B070BD000070470000411C4FF6EF
:104D3000FF7C12D040F24402C2F20002138881B21A
:104D40008B4204BF411E118044F6B42100EB4000A9
:104D5000C2F20001002201F830200FFA8CF07047F7
:104D6000704700002DE9F04144F2C018C2F200087B
:104D7000D8F804240C46D10740F0668043F600467C
:104D8000C4F20006074642F0010006F55845C8F88F
:104D9000040428460121002204F02AFA28460121B1
:104DA000012200BF00BF00BF00BF00BF00BF00BFA7
:104DB00000BF00BF00BF00BF00BF00BF00BF00BFFB
:104DC00000BF00BF00BF00BF00BF04F011FA7F01A9
:104DD0003046022108F0C2F80028F9D047F44040DC
:104DE00081B2304608F0B8F83046012108F0B6F834
:104DF0000028F9D0304608F0ABF8074630460221CB
:104E000008F0ACF80028F9D03046002108F0A4F8EA
:104E10003046012108F0A2F80028F9D0304608F009
:104E200097F8000940EA0730208028460121002237
:104E3000002404F0DDF9D8F8040420F00100C8F8DB
:104E400004042046BDE8F08101242046BDE8F0813D
:104E50002DE9F04144F2C018C2F20008D8F8042449
:104E60000E46D10718BFBDE8F08143F60045C4F2F5
:104E70000005074642F0010005F55844C8F804044F
:104E800020460121002204F0B3F92046012101222D
:104E900000BF00BF00BF00BF00BF00BF00BF00BF1A
:104EA00000BF00BF00BF00BF00BF00BF00BF00BF0A
:104EB00000BF00BF00BF00BF04F09AF928464FF4BE
:104EC000986108F049F800BF2846012108F046F82B
:104ED0000028F9D0284608F03BF82046012100229E
:104EE00004F086F920460121012200BF00BF00BF67
:104EF00000BF00BF00BF00BF00BF00BF00BF00BFBA
:104F000000BF00BF00BF00BF00BF00BF00BF00BFA9
:104F100000BF04F06DF900BF2846022108F01EF81A
:104F20000028F9D047F4A061284608F015F800BF22
:104F30002846012108F012F80028F9D0284608F088
:104F400007F800BF2846022108F008F80028F9D029
:104F50002846314608F000F82846012107F0FEFFF8
:104F60000028F9D0284607F0F3FF2046012100224F
:104F7000002604F03DF920460121012200BF00BFB8
:104F800000BF00BF00BF00BF00BF00BF00BF00BF29
:104F900000BF00BF00BF00BF00BF00BF00BF00BF19
:104FA00000BF00BF04F024F943F67F00C0F2010007
:104FB000002100BF721C41F10003371A71F100019A
:104FC0001646194600BFF5D320460121002204F001
:104FD0000FF920460121012200BF00BF00BF00BF22
:104FE00000BF00BF00BF00BF00BF00BF00BF00BFC9
:104FF00000BF00BF00BF00BF00BF00BF00BF00BFB9
:1050000004F0F6F82846022107F0A8FF0028F9D09E
:1050100028464FF4806107F09FFF00BF284601211A
:1050200007F09CFF0028F9D0284607F091FF2046A2
:105030000121002204F0DCF8D8F8040420F001007B
:10504000C8F80404BDE8F0810020002104F020FF2E
:10505000FAE70000F0B583B0382004F085FD42F691
:105060009875C2F2000528707D2004F07DFD04468D
:105070007E2004F079FD4FF6C070204045F6BF5108
:10508000884205D87D2045F6C051012208F012FB68
:10509000287878B30120E88000F0ECFA287100202D
:1050A00042F21071013900BFFCD10130B0F5FA7F36
:1050B000F6D1287900B341F2E2660020C0F2590629
:1050C00004F068FD0403701C4AF6B627C0F25807C6
:1050D000019042A2042009212346009704F010FF0A
:1050E000BC420EDDB44202DC29791A2924D25F20A9
:1050F00064211CE003B0F0BD002068712882052007
:1051000026E0E97944F2B850C0F2560001294FF088
:10511000807104BF46F21A70C0F258000FF038F8E0
:105120002979844208DD0A2906D80A200F2129712D
:105130000021687129820BE0481FC1B20022632957
:1051400068712A8203D8062938BF052000E0642050
:105150004CF6CD44C0B2CCF6CC44A0FB04011426DE
:10516000E879A6EB910146F61043C9B246F61C0257
:10517000C0F60103C0F60102012808BF134653F828
:1051800021004FF080710FF003F82979642928BFBE
:105190006421052998BF0521A1FB0412A6EB920109
:1051A00046F6B402C9B2C0F6010202EB810191EDEC
:1051B000000AE86080202883BDEEC00A10EE100AC5
:1051C0004FF080710EF0E4FF6861002128792977A3
:1051D000298503B0BDE8F04002F076BE766F6C74AE
:1051E000616765203D2025642C204F70656E766FC9
:1051F0006C74203D2025642C206F70656E766F6C7A
:10520000745F3435203D2025640D0A000020002104
:1052100004F03EFEFAE700007047000080B507F09A
:10522000BDFE002080BD0000B0B50446D0F80002ED
:10523000007888B1D4F80812002500BF31F91500B4
:10524000FFF774FDD4F80812D4F8002221F81500F5
:10525000107801358542F1D3B4F91002FFF766FDED
:10526000A4F81002204604F007FA0020B0BD0000A8
:1052700080B5D0F8E012097811B1002080BD00BFE0
:1052800090F8DD120029F8D0D0F8E4028900FEF78A
:1052900084FF002080BD0000826801EBC10302EBA7
:1052A00043024FF6FF7353800023C9B2D38007F047
:1052B00083BB000010B5826801EBC10312F81340F4
:1052C00002EB430C4FF6FF7E04F0FE04ACF804E062
:1052D000C9B202F81340BDE8104007F06DBB0000F2
:1052E0002DE9F04782B00446406907891FB1A069E3
:1052F0000589AF4206D92046002102F017FF02B00F
:10530000BDE8F08745F6696A4FF4C0560DF1040810
:10531000E946C0F6000A05E00137B8B2A84206F136
:105320000106E8D8B1B2204642464B4607F03CFBA6
:1053300001980028F0D1009800281CBFC0E902AAFB
:10534000C0F814A0E8E700002DE9F04381B004465E
:10535000406905894DB3A069B0F808904D4524D83F
:10536000A1684FF000080027F8B2C00050FA87F695
:1053700001EB4600B0F90200FFF7D8FCA16801EB91
:105380004602B2F9041050800846FFF7CFFCA1682E
:10539000013501EB46029080A8B2484507F10107AC
:1053A00001F81680A2F80680DED901B0BDE8F083CE
:1053B0007047000010B584B00446D0F80C02008895
:1053C000A0B1206894F8E01100788DF8081000F57D
:1053D000E060ADF804004FF48070ADF80600D4F83A
:1053E000B80201A903F09AFA04B010BDB4F9100292
:1053F000FFF79CFCA4F8100204B010BD70B584B097
:10540000D0F8C02002F1010E5FEA0E72C0F8C0E0D1
:1054100001D004B070BD90ED290AD0F8B020B5EEEF
:10542000400AF1EE10FAA1EB020C1CD090ED2A1A02
:10543000B5EE401AF1EE10FA15D06446BCF1000F3B
:1054400048BFCCF10004D0F894309A4203DA9C4271
:1054500001DB8B426CDB9C42A8BF8B4224DCD0F882
:105460009C60D51A27E06546CCF10003BCF1000F23
:1054700048BF1D46D0F89440A24203DAA54201DBA2
:105480008C424DDBA542A8BF8C4206DCBCF1010F6B
:105490003ADBD0F89C309C1842E0D0F89C50141BAA
:1054A000AC42F3DA00243BE0D0F89C60D51AB54258
:1054B00001DA00233CE002EE106A03EE105AB8EE67
:1054C000C22AB8EEC33AD0F8985021EE031AEB1A6C
:1054D00003EE103AB8EEC33A81EE031ABCF1010FA5
:1054E00030EE010A20EE020ABDEEC00A10EE105A9C
:1054F000A8BFAC450EDC0B46AC42C8BF531BBCF189
:10550000000F58BF0B4613E0BCF1FF3F04DD4FF026
:10551000000C08E053190BE0D0F89C609C46941BEB
:105520002246C0F8B040D0F89C309C450B4602DAC9
:105530001A46C0F8B030B0F8B830C0F8AC205D1CE6
:10554000B0F8B430AEB29E42A0F8B85002D2D0F853
:10555000BC4005E000240025A0F8B840C0F8BC40DD
:10556000AEB2B0F8B650B6EB530F28BF6D422B1950
:10557000002AC0F8BC301ABF1344C0F8AC30002376
:105580004CF6CD42CCF6CC420EFB02F243F233365F
:105590004FEA3212C0F23336B2423FF63AAF90F8D9
:1055A000C420002A7FF435AF43F66C34D0F8840071
:1055B000C2F200042668CDE9001005A201200721EF
:1055C000029604F09DFC20680530206004B070BD98
:1055D00043757272656E74436D64203D2025642CA2
:1055E00020546172676574203D2025642C20497227
:1055F0006566203D2025642C20436E74203D2025C7
:10560000640D0A00B0F800C043884FEA5C0203FB57
:105610000CF302EB1342B0F9040092B247F6FF73A9
:105620004243C0F68063D0139A42C8BF41F601508E
:1056300001290FD0002918BF704740F63401C4F289
:1056400000016045CEBF002000B2ACEB0000086056
:105650008860704740F634016045C4F2000103DD04
:1056600000204860C860704700B2ACEB00004860A2
:10567000C8607047B0B582B001A9F12001224FF691
:10568000FF7507F0D5FF18B1ADF80450642412E09F
:10569000BDF8040045F2555188424FF064040AD128
:1056A0000DF10601F220012207F0C2FFBDF806103D
:1056B000002808BF0C460DF10201F320012207F07B
:1056C000B7FF18B1ADF80250642512E0BDF8020032
:1056D00045F2555188424FF064050AD10DF106019B
:1056E000F420012207F0A4FFBDF80610002808BF2F
:1056F0000D46A8B2A1B2814288BF2C46E0B2642810
:1057000028BF6424E0B2052898BF0524E0B202B0A7
:10571000B0BD0000B0B582B01C46D0F8BC32154612
:10572000084601A96A469847019931B9009A22B101
:105730000079A84288BF42F82540084602B0B0BDB3
:105740002DE9F04F83B0044640694688002E00F0F2
:1057500089808B4658210BFB0142A36992F828707F
:105760005D88B919A9427DD8D4F804E092F829A03F
:105770005EF8311092F832C0CE6A40F20008D6F8D6
:1057800000904FF6FF76A2F87A60852682F82A60AC
:1057900094F8E061128E7F2EC0F2045801D0052EDD
:1057A00026D1BAF1010F09D1008808B3198838440D
:1057B00088421DD85EF83000006A00E04869006841
:1057C0004FF40061ADF80000100AADF802104FEA86
:1057D0000C61D2B241EA004040EA022000F18001AF
:1057E000D4F8B80201916946CDF8088003F096F824
:1057F00058260BFB064747F82C8F3A6D32B15FFAFB
:1058000089F120469047386840452BD15FFA8BF0EC
:1058100010FB0644B4F97A00FFF788FAA4F87A007E
:10582000E06D002584F82850258684F8325065857F
:10583000C4E90D55A4F8645084F8665084F8785093
:10584000E567A566E5660EF0ABFCC4E91755E563B0
:1058500025646564A564E56425656565A56584F8CA
:105860002950E56203B0BDE8F08F000080B584B038
:105870008C4658211CFB0102114651F8343F0BB9EC
:10588000936B0B60212B03934FF05803118E92F80A
:1058900032201CFB030334BF3C33DB6D4FF0010CA3
:1058A0000DF10C0ECDE900ECCDF808C002F006FDBC
:1058B00004B080BD2DE9F04F81B08146582011FB26
:1058C000009BDA465AF8386F8846B1181C461546D0
:1058D00021290AF104072ED35BF85C0FB0B15822DE
:1058E00018FB029858F8602F914223D902F5806185
:1058F0000EF0E4FC002849D00746D8F80000CBF8A9
:10590000007000F58060C8F8000014E04FF480607B
:105910000EF074FC582118FB01914FF48062CBF813
:1059200000000A6690B3394632468046FEF71CFCFA
:10593000474600E0074605B300210020625C8B1952
:1059400040F00101C9B2A942FA5416D2625C731840
:1059500040F00201C9B2A942FA540ED2625C731837
:1059600040F00301C9B2A942FA5406D20430625C85
:105970007318C1B2A942FA54E0D3DAF800002844FF
:10598000CAF80000002001B0BDE8F08FFF2001B090
:10599000BDE8F08F704700002DE9F04F81B040F274
:1059A000440AC2F2000A8846BAF900104FF0FF34E8
:1059B000B1F1FF3FC0F27E801646002A00F07A80E7
:1059C00044F6B422C2F20002814610789B460028B9
:1059D00088B239D003B2B3F1FF3F6BDD174617F839
:1059E000183FABB3002865D0174617F8303F8BB38C
:1059F00002285FD3174617F8483F6BB3032859D3E3
:105A0000174617F8603F4BB3042853D3174617F8CF
:105A1000783F2BB305284DD3174617F8903F0BB3AB
:105A2000062847D3174617F8A83FEBB1072841D3FC
:105A3000174617F8C03FCBB108283BD312F8D83F20
:105A4000002B37D1092400E0002417460FE000BFE7
:105A500001240CE002240AE0032408E0042406E008
:105A6000052404E0062402E0072400E008240131B4
:105A7000A14204BF0130AAF8000003F031FB054643
:105A80004FF6FF70DAF80410834538BF5846491BBB
:105A900088BF814204D92918CAF8041007F01CFAFB
:105AA00005EB0B00C7E903800A98C7E90196786106
:105AB00001203870204601B0BDE8F08F10B584B0E9
:105AC0000446D0F89C020168D4F8B802ADF804107E
:105AD0000021ADF8061001A902F020FFD4F8A412AD
:105AE0002046884794F8E60138B12046012102F0AB
:105AF0001DFBD4F8A8122046884704B010BD000052
:105B00000BF0F0BB81B04EF68851CEF200010A686E
:105B100041F2040042F47002C4F202000A6050F83C
:105B2000041C4FF0000C41F0010140F8041C016816
:105B300044F61F6241F080010160CDF800C0009B77
:105B4000934219D844F620630099013100910099DD
:105B5000994211D2009901310091009991420BD8DC
:105B60000099013100910099914205D800990131C5
:105B7000009100999942E7D3C0F800C0C0F828C04E
:105B800050F8041C4FF6FF72CFF6F662114040F851
:105B9000041C4FF41F01416050F8041C21F48021C3
:105BA00040F8041C50F8041C41F4803140F8041CF7
:105BB0004FF6FC7150F8042C92035CBF50F8042C93
:105BC0005FEA82320AD450F8042C39B112F4003260
:105BD00004D150F8042C04399203EBD550F8041C7E
:105BE000890300D4FEE7826947F2040142F0805243
:105BF000C4F20001826151F8042C4FF6FF7342F4A5
:105C0000404241F8042C0268CBF2C3730260026880
:105C10000260026842F480620260026822F440324C
:105C20000260026842F44032026002681A40026078
:105C3000026842F0006242F45012026050F8042CF4
:105C400042F0807240F8042C50F8042C92015CBFA2
:105C500050F8042C5FEA821207D450F8042C920109
:105C600003D450F8042C9201EED551F8042C42F4E0
:105C7000803241F8042C00BF0A68D2035CBF0A6876
:105C80005FEAC23205D40A68D20302D40A68D2039A
:105C9000F2D551F8042C42F4003241F8042C00BF34
:105CA0000A6892035CBF0A685FEA823205D40A6818
:105CB000920302D40A689203F2D5016821F003012D
:105CC0000160016841F0020101600168090709D41F
:105CD000016809075CBF01685FEA017102D40168CD
:105CE0000907F2D501B0704710B542F60044C4F27E
:105CF00001042046012107F07DFC012818BF10BDDA
:105D000020460121BDE8104007F070BC70B540F698
:105D10000004C4F2000420460221022507F06AFCB8
:105D2000012801D1002611E020460421042507F0B6
:105D300061FC012801D1012608E020460821082540
:105D400007F058FC012818BF70BD022620462946DE
:105D500007F04CFC20463146BDE8704007F020BA01
:105D600010B541F20004C4F200042046012107F0FE
:105D700041FC002808BF10BD2046012107F036FC79
:105D800043F27810C2F200000021C0E90211BDE820
:105D9000104001F07DBD0000B0B541F20044C4F2F6
:105DA00000042046012107F025FC002847D02046AA
:105DB000012107F01BFC43F25405C2F2000568788C
:105DC000411C01F07F0100F08002114410F07C0FB3
:105DD00069700BD0C20904F580304FF4806103F084
:105DE00007FA6878802121EA000068706868411C21
:105DF00040F6B8308142696021D3686004F5803094
:105E00004FF4006103F0F2FB2978814214D16888D5
:105E1000013081B26429688038BFB0BD0020002104
:105E200004F036F8512003F0F7FD05A204200B2101
:105E3000BDE8B04004F064B8002169802870B0BDAE
:105E40004C6F6E672054696D65204E6F20526576E9
:105E5000204D7374204861726420576467212121AA
:105E60002121210D0A00000070B5044690F8E601DA
:105E700088B3052A2FD80120904010F02C0F2AD08B
:105E8000606962680089A36802EBC000081AC0F369
:105E9000C705C108E80050FA81F603EB4600B0F9E7
:105EA0000200FEF743FFA16801EB4602B2F90410BD
:105EB00050800846FEF73AFFA16801EB4602908049
:105EC000002001F816004FF6FF715180D080204667
:105ED000294606F071FD002070BD00000023B0F5DA
:105EE000C05F1360C1F24181A0F5C05C4FEA1C1392
:105EF000922B01F25581DFE81CF03009B509BD098C
:105F0000C509CC09D409DC09E409EC09F309AF0996
:105F1000AF09AF09AF09AF09AF09AF09AF09AF09C1
:105F2000AF09AF09AF09AF09AF09AF09AF09AF09B1
:105F3000AF09AF09AF09AF09AF09AF09AF09AF09A1
:105F4000AF09AF09AF09AF09AF09AF09AF09AF0991
:1062F000AF09AF09AF09AF09AF09FB09FD09FF09F4
:10630000010A030A050A070A090A0B0A0D0AAF095E
:10631000AF09AF09AF09AF09AF09AF09AF09AF09BD
:10632000AF09AF09AF09AF09AF09AF09AF09AF09AD
:10633000AF09AF09AF09AF09AF09AF09AF09AF099D
:10634000AF09AF09AF09AF09AF09AF09AF09AF098D
:106EF000AF09AF09AF09AF09AF090F0A110A130AA9
:106F0000150A170A190A1B0A1D0A1F0A210A230A51
:106F1000250A270A290A2B0A2D0A2F0A310A330AC1
:106F2000350A370A390A3B0A3D0A3F0A410A430A31
:106F3000450A470A490A4B0A4D0A4F0A510A530AA1
:106F4000550A570A590A5B0A5D0A5F0A610A630A11
:106F5000650A670A690A6B0A6D0A6F0A710A730A81
:106F6000750A770A790A7B0A7D0A7F0A810A830AF1
:106F7000850A870A890A8B0A8D0A8F0A910A930A61
:106F8000950A970A990A9B0A9D0A9F0AA10AA30AD1
:106F9000A50AA70AA90AAB0AAD0AAF0AB10AB30A41
:106FA000B50AB70AB90ABB0ABD0ABF0AC10AC30AB1
:106FB000C50AC70AC90ACB0ACD0ACF0AD10AD30A21
:106FC000D50AD70AD90ADB0ADD0ADF0AE10AE30A91
:106FD000E50AE70AE90AEB0AED0AEF0AF10AF30A01
:106FE000F50AF70AF90AFB0AFD0AFF0A010B030B6F
:106FF000050B070B090B0B0B0D0B0F0B110B130BD9
:10700000150B170B190B1B0B1D0B1F0B210B230B48
:10701000250B270B290B2B0B2D0B2F0B310B330BB8
:10702000350B370B390B3B0B3D0B3F0B410B430B28
:10703000450B470B490B4B0B4D0B4F0B510B530B98
:10704000550B570B590B5B0B5D0B5F0B610B630B08
:10705000650B670B690B6B0B6D0B6F0B710B730B78
:10706000750B770B790B7B0B7D0B7F0B810B830BE8
:10707000850B870B890B8B0B8D0B8F0B910B930B58
:10708000950B970B990B9B0B9D0BAF09AF09AF09A4
:10709000AF09AF09AF09AF09AF09AF09AF09AF0930
:1070A000AF09AF09AF09AF09AF09AF09AF09AF0920
:1070B000AF09AF09AF09AF09AF09AF09AF09AF0910
:1070C000AF09AF09AF09AF09AF09AF09AF09AF0900
:1070D000AF09AF09AF09AF09AF09AF09AF09AF09F0
:1070E000AF09AF09AF09AF09AF09AF09AF09AF09E0
:1070F000AF09AF09AF09AF09AF099F0BA10BA30BF4
:10710000A50BA70BA90BAC0BAF0BB20BB50BB80BB8
:10711000BB0BBE0BC10BC40BC70BCA0BCD0BD00BEB
:10712000D30BD60BD90BDC0BDF0BE20BE50BE80B1B
:10713000EB0BEE0BF10BF40BF70BFA0BFD0B000C4A
:10714000030C060C090C0C0C0F0C120C150C180C73
:107150001B0C1E0C210C240C270C43F28810C2F2CD
:107160000000343010601F237DE3B0F5A05F2FDBFB
:10717000A0F5A052092A40F24D80A0F5B050092890
:1071800000F26A80DFE810F00A00E302E502E7029D
:10719000E902EB02ED02EF02F102F302152362E3D2
:1071A000A0F54052092A43D9A0F58040092800F2F1
:1071B0005380DFE810F00A00DE02E102E402E70299
:1071C000EA02ED02F002F302F60240F235134AE35E
:1071D000A0F5805CBCF1180F39D8DFE81CF044033F
:1071E00019003D00E5023D00ED02F5023D003D00C5
:1071F0003D003D003D003D003D003D003D00FD02E5
:1072000004033D003D000C033D003D000E0316034A
:10721000012328E3DFE812F00A00FB02FD02FF026F
:10722000010303030503070309030B030B231AE3FD
:10723000DFE812F00A00FF020203050308030B0354
:107240000E0311031403170340F22B130BE3B0F5E5
:10725000905F01D10A2306E30020C0F202600860BB
:107260000020704743F28810C2F200004C301060DA
:107270002023F8E243F28810C2F20000643010606C
:107280002123F0E243F26820C2F2000010602223C2
:10729000E9E243F26820C2F20000183010602323B4
:1072A000E1E243F26820C2F2000030301060242393
:1072B000D9E243F26820C2F2000048301060252372
:1072C000D1E243F26820C2F2000060301060262351
:1072D000C9E243F2E020C2F2000010602723C2E2BC
:1072E00043F2E020C2F20000183010602823BAE216
:1072F0002923B8E22A23B6E22B23B4E22C23B2E2FC
:107300002D23B0E22E23AEE22F23ACE23023AAE2FB
:107310003123A8E23223A6E23323A4E23423A2E2FB
:107320003523A0E236239EE237239CE238239AE2FB
:10733000392398E23A2396E23B2394E23C2392E2FB
:107340003D2390E23E238EE23F238CE240238AE2FB
:10735000412388E2422386E2432384E2442382E2FB
:10736000452380E246237EE247237CE248237AE2FB
:10737000492378E24A2376E24B2374E24C2372E2FB
:107380004D2370E24E236EE24F236CE250236AE2FB
:10739000512368E2522366E2532364E2542362E2FB
:1073A000552360E256235EE257235CE258235AE2FB
:1073B000592358E25A2356E25B2354E25C2352E2FB
:1073C0005D2350E25E234EE25F234CE260234AE2FB
:1073D000612348E2622346E2632344E2642342E2FB
:1073E000652340E266233EE267233CE268233AE2FB
:1073F000692338E26A2336E26B2334E26C2332E2FB
:107400006D2330E26E232EE26F232CE270232AE2FA
:10741000712328E2722326E2732324E2742322E2FA
:10742000752320E276231EE277231CE278231AE2FA
:10743000792318E27A2316E27B2314E27C2312E2FA
:107440007D2310E27E230EE27F230CE280230AE2FA
:10745000812308E2822306E2832304E2842302E2FA
:10746000852300E28623FEE18723FCE18823FAE1FD
:107470008923F8E18A23F6E18B23F4E18C23F2E1FE
:107480008D23F0E18E23EEE18F23ECE19023EAE1FE
:107490009123E8E19223E6E19323E4E19423E2E1FE
:1074A0009523E0E19623DEE19723DCE19823DAE1FE
:1074B0009923D8E19A23D6E19B23D4E19C23D2E1FE
:1074C0009D23D0E19E23CEE19F23CCE1A023CAE1FE
:1074D000A123C8E1A223C6E1A323C4E1A423C2E1FE
:1074E000A523C0E1A623BEE1A723BCE1A823BAE1FE
:1074F000A923B8E1AA23B6E1AB23B4E1AC23B2E1FE
:10750000AD23B0E1AE23AEE1AF23ACE1B023AAE1FD
:10751000B123A8E1B223A6E1B323A4E1B423A2E1FD
:10752000B523A0E1B6239EE1B7239CE1B8239AE1FD
:10753000B92398E1BA2396E1BB2394E1BC2392E1FD
:10754000BD2390E1BE238EE1BF238CE1C0238AE1FD
:10755000C12388E1C22386E1C32384E1C42382E1FD
:10756000C52380E1C6237EE1C7237CE1C8237AE1FD
:10757000C92378E1CA2376E1CB2374E1CC2372E1FD
:10758000CD2370E1CE236EE1CF236CE1D0236AE1FD
:10759000D12368E1D22366E1D32364E1D42362E1FD
:1075A000D52360E1D6235EE1D7235CE1D8235AE1FD
:1075B000D92358E1DA2356E1DB2354E1DC2352E1FD
:1075C000DD2350E1DE234EE1DF234CE1E0234AE1FD
:1075D000E12348E1E22346E1E32344E1E42342E1FD
:1075E000E52340E1E6233EE1E7233CE1E8233AE1FD
:1075F000E92338E1EA2336E1EB2334E1EC2332E1FD
:10760000ED2330E1EE232EE1EF232CE1F0232AE1FC
:10761000F12328E1F22326E1F32324E1F42322E1FC
:10762000F52320E1F6231EE1F7231CE1F8231AE1FC
:10763000F92318E1FA2316E1FB2314E1FC2312E1FC
:10764000FD2310E1FE230EE1FF230CE14FF48073D4
:1076500009E140F2011306E14FF4817303E140F2C6
:10766000031300E14FF48273FDE040F20513FAE0EA
:107670004FF48373F7E040F20713F4E04FF48473A0
:10768000F1E040F20913EEE04FF48573EBE040F2D5
:107690000B13E8E04FF48673E5E040F20D13E2E0EF
:1076A0004FF48773DFE040F20F13DCE04FF4887390
:1076B000D9E040F21113D6E04FF48973D3E040F2E1
:1076C0001313D0E04FF48A73CDE040F21513CAE0F3
:1076D0004FF48B73C7E040F21713C4E04FF48C7380
:1076E000C1E040F21913BEE04FF48D73BBE040F2ED
:1076F0001B13B8E04FF48E73B5E040F21D13B2E0F7
:107700004FF48F73AFE040F21F13ACE04FF490736F
:10771000A9E040F22113A6E04FF49173A3E040F2F8
:107720002313A0E04FF492739DE040F225139AE0FA
:107730004FF4937397E040F2271394E04FF494735F
:1077400091E040F229138EE04FF495738BE01623FD
:1077500089E0172387E0182385E0192383E01A23A3
:1077600081E01B237FE01C237DE01D237BE01E23A3
:1077700079E04FF49B7376E040F2371373E04FF4F7
:107780009C7370E040F239136DE04FF49D736AE032
:1077900040F23B1367E04FF49E7364E040F23D1308
:1077A00061E04FF49F735EE043F2E020C2F200001C
:1077B00030301060022356E043F28810C2F200001D
:1077C0001430106003234EE043F28810C2F2000030
:1077D00018301060042346E040F23C40C2F2000042
:1077E000106005233FE043F28810C2F20000203011
:1077F0001060062337E0072335E043F28810C2F219
:1078000000001C30106008232DE009232BE00C231E
:1078100029E00D2327E00E2325E00F2323E010238A
:1078200021E011231FE012231DE013231BE014238A
:1078300019E04FF4967316E040F22D1313E04FF465
:10784000977310E040F22F130DE04FF498730AE0A5
:1078500040F2311307E04FF4997304E040F2331320
:1078600001E04FF49A730020086044F25C30C0F6E7
:10787000010000EBC30070479F2806D1087800285C
:107880001EBF3020C0F20960704700207047000022
:107890002DE9F04381B001F023FC40F24409C2F22B
:1078A0000009B9F9002044F6B428002AC2F2000801
:1078B0002ED40146D9F8040008F1100543184FF6FC
:1078C000FF7000264FF0020C4FF0030E0BE000BFDC
:1078D000FC1A2C60844238BF2046741C26B29642A3
:1078E00005F1180516DC15F8107CFF07F5D02F6898
:1078F0009F42EDD86F683FB1B1FBF7F405F810EC8B
:107900007C43641A3C44E4E705F810CCE5E700BF8B
:107910004FF6FF70C9F8040005F0DEFAB9F900006F
:1079200000281DD408F10805002606E0711C0EB2DF
:1079300001B28E4205F1180512DC15F8081C8A0701
:10794000F4D52A6801F0FD01002A05F8081CEDD0E5
:1079500055F8040C69689047B9F80000E6E700BFE5
:1079600001B0BDE8F08300002DE9F04140F20008CD
:10797000C4F20208A8F5484540F20431C0F20401FF
:10798000284606F099FA002808BFBDE8F08128468D
:1079900006F022FA4046042101F0FCFAC0F140054D
:1079A000002006F0D5F944F6E441C2F200010C884B
:1079B0004A88ABB2A71A3EB2002E48BF4037002B10
:1079C0003ED03FB2C7F140079F4239D95F1E032F17
:1079D00003F0030C43D20023BCF1000F30D0A6B259
:1079E000012717FA84F73E2E88BF0027974204D05C
:1079F000C55C0E443C4635710F80BCF1010F1FD0B1
:107A0000A6B2012717FA84F73E2E88BF00279742B7
:107A100005D05D1C455D0E443C4635710F80BCF1C0
:107A2000020F0DD0A7B2012616FA84F63E2F88BFAA
:107A30000026964204D09A1C805CCA1910710E80F0
:107A40004046042101F0B6F940460421402201F0ED
:107A50008FFA40460421BDE8F04101F0BFB9A3EB25
:107A60000C0E0023012602E004339E45B4D0A7B2D9
:107A700016FA84F53E2F88BF0025954204D0C45CD9
:107A80000F443C712C460D80A7B216FA84F53E2FA8
:107A900088BF0025954205D0C41864780F443C7116
:107AA0002C460D80A5B216FA84F73E2D88BF00271C
:107AB000974205D0C418A4780D442C713C460F8021
:107AC000A7B216FA84F53E2F88BF00259542CBD089
:107AD000C418E4780F443C712C460D80C4E70000C4
:107AE0002DE9F04140F20008C4F20208A8F5DE35A5
:107AF00040F20431C0F20401284606F0DDF9002806
:107B000008BFBDE8F081284606F066F94046052129
:107B100001F040FAC0F11005012006F019F944F611
:107B20006C51C2F200010C884A88ABB2A71A3EB26F
:107B3000002E48BF4037002B3ED03FB2C7F1400770
:107B40009F4239D95F1E032F03F0030C43D2002359
:107B5000BCF1000F30D0A6B2012717FA84F73E2EF1
:107B600088BF0027974204D0C55C0E443C4635715F
:107B70000F80BCF1010F1FD0A6B2012717FA84F7BE
:107B80003E2E88BF0027974205D05D1C455D0E4400
:107B90003C4635710F80BCF1020F0DD0A7B2012613
:107BA00016FA84F63E2F88BF0026964204D09A1C0F
:107BB000805CCA1910710E804046052101F0FAF868
:107BC00040460521102201F0D3F940460521BDE8C9
:107BD000F04101F003B9A3EB0C0E0023012602E0F3
:107BE00004339E45B4D0A7B216FA84F53E2F88BF61
:107BF0000025954204D0C45C0F443C712C460D8096
:107C0000A7B216FA84F53E2F88BF0025954205D00D
:107C1000C41864780F443C712C460D80A5B216FA46
:107C200084F73E2D88BF0027974205D0C418A4785A
:107C30000D442C713C460F80A7B216FA84F53E2FF6
:107C400088BF00259542CBD0C418E4780F443C711E
:107C50002C460D80C4E700002DE9F04F87B046F2B6
:107C60000044C4F20004204640F21A2100F03AFF1A
:107C700043F268750028C2F2000548D06988288858
:107C800081423FD005EB01104389013142681FFA60
:107C900081FC067A019390F80CE090F80D8090F842
:107CA0000E9090F80FA090F810B0477C837CC07CB9
:107CB000BCF13F0F88BF0021B2F5006F69808DF8DD
:107CC000116004D304218DF81010039203E0002109
:107CD0008DF81010029201998DF81A008DF812108B
:107CE00002A920468DF813E08DF814808DF81590C8
:107CF0008DF816A08DF817B08DF818708DF8193022
:107D000000F0DCFF20464FF4004100F081FF2046E8
:107D100040F21B2100F0E6FE002848D06988288840
:107D200081423FD005EB01104389013142681FFABF
:107D300081FC067A019390F80CE090F80D8090F8A1
:107D40000E9090F80FA090F810B0477C837CC07C18
:107D5000BCF13F0F88BF0021B2F5006F69808DF83C
:107D6000116004D304218DF81010039203E0002168
:107D70008DF81010029201998DF81A008DF81210EA
:107D800002A920468DF813E08DF814808DF8159027
:107D90008DF816A08DF817B08DF818708DF8193081
:107DA00000F08CFF20464FF4024100F031FF2046E6
:107DB0004FF4077100F096FE002848D069882888A3
:107DC00081423FD005EB01104389013142681FFA1F
:107DD00081FC067A019390F80CE090F80D8090F801
:107DE0000E9090F80FA090F810B0477C837CC07C78
:107DF000BCF13F0F88BF0021B2F5006F69808DF89C
:107E0000116004D304218DF81010039203E00021C7
:107E10008DF81010029201998DF81A008DF8121049
:107E200002A920468DF813E08DF814808DF8159086
:107E30008DF816A08DF817B08DF818708DF81930E0
:107E400000F03CFF20464FF4044100F0E1FE07B093
:107E5000BDE8F08F70B586B046F2004001ACC4F2C8
:107E600000000021224600F0DBFE43F2643CC2F237
:107E7000000CBCF80020511C8BB23F2B88BF0021A6
:107E8000BCF8023088B2984216D09DF80C00DDF89C
:107E900013E0DDF80F309DF80D509DF80E600028BE
:107EA00018BF043420680CEB021250601572568122
:107EB000C2E9033EACF8001006B070BD00200021FE
:107EC00001F0E6FFFAE70000B0B582B0044601A970
:107ED000F12001224FF6FF7505F0AAFB28B1ADF89D
:107EE00004506420A04217D01CE0BDF8040045F205
:107EF000555188420DD10DF10601F220012205F005
:107F000097FB00280CBFBDF806006420A04203D0F8
:107F100008E06420A04205D1BDF8040045F25551A7
:107F2000884210D0F1204FF6FF71022205F0C2FB0B
:107F3000F2202146022205F0BDFBF12045F2555109
:107F4000022205F0B7FB0DF10201F320012205F03A
:107F50006FFB28B1ADF802506420A04217D01EE09C
:107F6000BDF8020045F2555188420DD10DF10601D0
:107F7000F420012205F05CFB00280CBFBDF80600D0
:107F80006420A04203D00AE06420A04207D1BDF8DB
:107F9000020045F25551884201D102B0B0BDF32034
:107FA0004FF6FF71022205F085FBF42021460222E4
:107FB00005F080FBF32045F25551022205F07AFBD3
:107FC00002B0B0BD704700002DE9F04383B01C46FD
:107FD000D0F8BC321546084602A901AA9847029972
:107FE00021B1084603B0BDE8F08300BF0179A94282
:107FF0001ED90C9931B1016805EB450211F8221028
:10800000C9071DD124B30268DDF8288005EB4501BE
:1080100002EB81025368D8F80070BB421ED90521DB
:10802000C8F80030C0F20451084603B0BDE8F08340
:108030001121C0F20961084603B0BDE8F08300BF1A
:108040000121C0F20161084603B0BDE8F08300BF22
:108050004FF00061084603B0BDE8F0830B9B5278F7
:108060001A700068092A00EB8100D0E901912DD136
:10807000D8F800200E78002A08BF4A460846B6B352
:10808000012A084633DB881800228D18A6542B4697
:1080900013F8017F37B3834224D2A61877702B469A
:1080A00013F8027F07B383421ED2B7702B4613F832
:1080B000037FDFB1834219D2F77015F8046F0432E1
:1080C0000EB18542E1D3881811E000BF20464A4630
:1080D000FCF74AF8C8F800900021084603B0BDE854
:1080E000F08300BF681C02E0A81C00E0E81C411AF5
:1080F000C8F8001049454FF0000138BF017008462C
:1081000003B0BDE8F0830000704700007047000036
:108110007047000070470000704700007047000083
:108120007047000070470000704700002DE9F04FD5
:1081300083B0834690F8E60168B1DBF81400058946
:108140004DB1DBF81800B0F808A000205545CDE986
:108150000100009004D9002003B0BDE8F08F00BFFB
:10816000002900F083804FF000090320E8462E46E6
:108170000027032857D100BFDBF8040050F8350072
:108180004169096800294BD4026A1078411EC9B2BE
:10819000EF2921D8F9B2DBF80830C80050FA87F58A
:1081A00013F81500441C03F815401078E2B282421F
:1081B00012D103EB450080F8009058464246CDF8B6
:1081C0000890CDE9009900F0BBFA98B3B5B25545D7
:1081D0004FF00B00CDD9BEE7F0B1FC2820D1F9B2A9
:1081E000DBF80800CA0052FA87F400EB4400821D55
:1081F000584600F0A5FADBF80820002812F8141001
:1082000002EB4400B2B20CBF41F0010101F0FE01EB
:108210005245017007D99EE7F9B2584604F0CCFBED
:10822000B0B2504597D80136B5B2554593D801370D
:10823000A2E700BFB0B250453FF68DAFDBF80800B3
:10824000029ADDE9001300EB4500C0F80E20C0F8EB
:108250000A30C0F80610DBF8B802414600F05EFBB9
:108260000136B5B25545E2D975E700BF002628466C
:10827000DBF8041051F8300041690968002911D475
:10828000006A0078FE280DD3F1B2DBF80800CA00BE
:1082900052FA86F210F81200C00703D1584604F0D3
:1082A0008BFB00BFA8B250453FF655AF0135A8B2D1
:1082B000504506F10106DBD94DE700002DE9F04FEE
:1082C00083B01C46D0F8BC320E469046054602A943
:1082D00001AA30469847029921B1084603B0BDE88B
:1082E000F08F00BF0746007940450FD90D993868D7
:1082F000A1B108EB480110F8211002290ED102218A
:10830000C0F20161084603B0BDE8F08F1121C0F250
:108310000961084603B0BDE8F08F00BF0C9A08EB76
:10832000480A00EB8A01106891F80190D1F804B076
:10833000002818BF584537D16A6A484621469047F9
:10834000014600280290C8D138680C9900EB8A00D9
:1083500080680A682146FBF707FF0C9BB9F1090FFB
:1083600008D11868584505D23968002201EB8A0106
:1083700089680A540198C3F800B050B150F8283009
:108380003BB12846394642469847014600280290AC
:10839000A3D1386810F82A00400713D400210846FA
:1083A00003B0BDE8F08F00BFB9F1090F01D1584506
:1083B000C2D31021C0F20761C2F800B0084603B072
:1083C000BDE8F08FD5F8C03228463146424698477E
:1083D0000021084603B0BDE8F08F000070470000A0
:1083E00070470000816841F00801816081680907D9
:1083F00009D58168090744BF81685FEA017102D528
:1084000081680907F2D4816841F00401816003E0CA
:108410008168490758BF70478168490706D5816858
:10842000490744BF81685FEA4171F1D47047000099
:1084300080B5012908D0022918BF80BD4FF4401E25
:108440006FF4401C382304E04FF4700E6FF4700C8E
:108450002C23195801EA0C0119500EEB02511A583D
:1084600001EA0E011143195080BD00008268002905
:1084700022F4006218BF02F50062826070470000BB
:10848000816841F480718160704700008168C9078C
:1084900018BF7047816841F001018160704700009A
:1084A000002A01F0010203D082B9890714D4704771
:1084B0001AB1826822F480128260890758BF70471F
:1084C000816821F400418160704700BF826842F4F6
:1084D000801282608907EAD5816841F40041816099
:1084E00070470000012905D0022918BF70476FF4BA
:1084F000E04101E06FF46021836819408160816888
:10850000114381607047000080B5D0F838C0D0F8C2
:1085100038E0CCF3015CA1EB0C0101EB810101F12E
:108520000F0C1F2101FA0CF12EEA010E02FA0CF1D8
:1085300041EA0E01092A816304D800F1100C02EB14
:10854000420107E0112A88BF80BD02EB420100F121
:108550000C0C1E39DCF800200720884022EA0000BD
:1085600003FA01F10843CCF8000080BD03298EBF57
:10857000002000EB8100C06B80B27047CA0703D0B7
:10858000426842F0400242608A0703D5426842F0E6
:1085900020024260490758BF7047416841F080019E
:1085A00041607047026822EA0101016070470000E3
:1085B00042F20441C4F201010A6822F470220A6006
:1085C0000A68104308607047D0F880C0B1F5007F9A
:1085D0002CF4007C08BF0CF5007CC0F880C0D0F8FB
:1085E00080101A4321F4FE71C0F88010D0F880107A
:1085F0001143C0F880107047D0F8801041F001019D
:10860000C0F880107047000080B505290ED8D0F85A
:1086100034C001EB810E1F2101FA0EF12CEA010C8E
:1086200002FA0EF141EA0C01416325E00B2911D851
:1086300001EB8101D0F830C0A1F11E0E1F2101FA1B
:108640000EF12CEA010C02FA0EF141EA0C01016371
:1086500012E000BF10290FD201EB8101D0F82CC02D
:10866000A1F13C0E1F2101FA0EF12CEA010C02FAD5
:108670000EF141EA0C01C162092A05D800F1100C83
:1086800002EB420108E000BF112A88BF80BD02EB67
:10869000420100F10C0C1E39DCF800200720884054
:1086A00022EA000003FA01F10843CCF8000080BD83
:1086B000CA0703D0826842F480028260890758BFEB
:1086C0007047816841F4001181607047002A01F40D
:1086D000807205D0C2B94A051CD4890720D47047DE
:1086E0001AB1426822F4807242604A0503D542689A
:1086F00022F480624260890758BF7047816821F088
:1087000002018160704700BF426842F4807242609B
:108710004A05E2D5426842F4806242608907DED5AC
:10872000816841F0020181607047000042F2084018
:10873000C4F20100016841F40001016070470000CB
:108740002DE9F04F8FB04669476833890D4607EB36
:10875000C3010990708951F8351007EBC0064869CC
:1087600056F8351000888F686FF3DF204FF0000A4D
:108770004FF0FF084FF000090024108010460892C7
:1087800082F802A00795CDE9057604E00A9C00BFB7
:108790003878814576D2CDE90CAA56F8350009F132
:1087A000010909EB490100EB81008068D0F800B0B5
:1087B0005FFA8BF10029EBD00A19402AE8D8013979
:1087C0004FF0010C0CEBD1010B910A9242780BA8EF
:1087D00000900DF13B00CDE9010A09984FEA1B41D9
:1087E0000CABCDF80CC0FFF7EFFB002854D15FEACB
:1087F0000B60CBD0089904F0070001EBD4010431E1
:1088000000220CAB871A7DB21F4617F8016B6C4231
:108810005FFA80FC26FA04F4002DC8BF06FA05F4BE
:10882000CCF1080628FA06FCD8BFC2F108065FFAA8
:108830008BFEF6B2764588BF764656FA80F008FA87
:1088400000F5EDB245EA0C0591F800C0AC4305EA2D
:108850000C05254432440D70D5B2072D84BF00228B
:108860003B4610F0F807ABEB060B1CBF0127504648
:108870005FEA0B663944C5D10A9C079DDDE90576A0
:1088800086E700BF601E012101EBD0000899C87087
:1088900000200FB0BDE8F08FFF200FB0BDE8F08FD3
:1088A000B1F800C04FEADC130E2B88BF7047DFE839
:1088B00003F02D133309090909090909090B0B33C1
:1088C0001D0000BF02F0EAB990F8E221002A18BFAB
:1088D00002F08ABB20E000BFBCF1800F0ED190F8FF
:1088E000E411002918BF03F073BE15E090F8E521EC
:1088F000002A18BF02F04EB90EE000BF90F8E32145
:10890000002A18BF02F0DAB806E000BF026A127847
:10891000002A18BF02F0E4B87047000070B584B0B8
:10892000CA780D88887800958DF80400ADF8062087
:1089300022B1684608300431FBF716FC42F6EC66BB
:10894000C2F2000630686946A84201F1080405D168
:1089500072681AB1284621469047009DB06885424A
:1089600005D1F2681AB1A8B221469047009D30693E
:10897000854205D172691AB1A8B221469047009D7F
:10898000B069854205D1F2691AB1A8B22146904773
:10899000009D306A854205D1726A1AB1A8B221469B
:1089A0009047009DB06A854205D1F26A1AB1A8B21B
:1089B00021469047009D306B854205D1726B1AB1FC
:1089C000A8B221469047009DB06B854205D1F26B5D
:1089D0001AB1A8B221469047009D306C854205D15E
:1089E000726C1AB1A8B221469047009DB06C8542C6
:1089F00004D1F26C12B1A8B221469047694600201A
:108A000000F0E8FE002004B070BD000046F2004116
:108A1000C4F20001884218BF704780B540F2194087
:108A200003F0BAFE40F21940BDE8804003F0A4BE56
:108A3000B0B546F20061C4F2000144890A684FF003
:108A4000010C42F001020A60CB690CFA04F5AB4359
:108A5000CB61C3896FEA050C012B11D02BBBCB680E
:108A600003EA0C03CB60B0F806E0438843EA0E4308
:108A70004FEAC40E01EBC404236403460EE000BFBA
:108A8000CB682B43CB60B0F800E0438843EA0E4349
:108A90004FEAC40E01EBC4042364831D84881B8841
:108AA00043EA044301EB0E04636483894C68002BA2
:108AB00044EA050208BF04EA0C024A6002894B69D5
:108AC000002A43EA050408BF03EA0C044C61007C59
:108AD000012802D1C8692843C861086820F0010054
:108AE0000860B0BD8A09105801F01F01C84000F0AD
:108AF0000100704710B5026840F2040C22F0020237
:108B000002600368CFF6FF7C43F001030360634615
:108B10004268D20704BF42685FEAC2720AD1426863
:108B2000D20704BF42685FEAC27203D1002B03F18F
:108B30000403EDD14268D20704BF002010BD0A78BB
:108B40004B7891F802E0CC78920763F319620EF04B
:108B50000F0342EA034204F007034C8942EA03523E
:108B6000631E6FF39F231A44C2610A790368012AC6
:108B700023F0800308BF803303604A790368012A29
:108B800023F0400308BF403303608A790368012A59
:108B900023F0200308BF20330360CA790368012A49
:108BA00023F0100308BF103303600A7A0368012A18
:108BB00023F0080308BF08330360497A02680129DB
:108BC00022F0040208BF04320260016821F00101B2
:108BD00001604168C90715D04168C9071CBF4168D9
:108BE0005FEAC1710ED04268BCF1000F614618BF48
:108BF0000121D20704D0BCF1000F0CF1040CE8D124
:108C0000084610BD012010BD426911434161704703
:108C1000C1F38412012303FA02F2090B0A507047D0
:108C200080B500EB011EDEF8B0C11CF00403137226
:108C3000DEF8B0C119BF4FEADC0353604FEA5C5362
:108C40001360DEF8B031002903F002035372DEF83E
:108C5000B4314FEA1323D374DEF8B43103F00F03B9
:108C60009372DEF8B831D372DEF8B8314FEA1323CD
:108C70001373DEF8B8314FEA13435373DEF8B8319B
:108C80004FEA13639373DEF8BC31D373DEF8BC3163
:108C90004FEA13231374DEF8BC314FEA13435374C5
:108CA000DEF8BC314FEA136393744FF0100208BF33
:108CB0000C22115841F02001115080BD10B5024620
:108CC000806840010AD49068000109D49068C0000F
:108CD0005CBF032010BD022003E000BF002000E0C5
:108CE000012002EB0012D2F8803103F00103C2F838
:108CF000803191F808C0BCF1000F03D04B684CEAFA
:108D0000C30C02E00B684FEA435C4B7A91F80AE02F
:108D1000D2F8804143EA0C032343C2F88031D2F8F1
:108D2000843123F00F03C2F88431D2F8843143EA4E
:108D30000E03C2F88431D1F80B30C2F88831D1F873
:108D40000F10C2F88C11D2F8801141F00101C2F865
:108D5000801110BD81B1032810D8DFE800F00311A5
:108D60001B2300BF0020C0F2FF3088600020486055
:108D70004FF4003008607047FEE700BFFEE700BF19
:108D800000204FF480320874CA6008604860886030
:108D9000704700BF0020C1F80F00C1E90000C1E921
:108DA000020070470020C1E90000C1E9020008612B
:108DB0007047000040F20042C4F20202904203D128
:108DC000052901D3FEE700BF01EB810100EB810023
:108DD000816821F0010181607047000040F200428B
:108DE000C4F20202904203D1052901D3FEE700BF7D
:108DF00001EB810100EB8100816841F0010181609C
:108E00007047000040F20042C4F20202904203D1D7
:108E1000052901D3FEE700BF01EB810100EB8100D2
:108E2000816841F0200181607047000040F20042FB
:108E3000C4F20202904203D1052901D3FEE700BF2C
:108E400001EB810200EB82029368890023F00103A9
:108E5000936000239360D360136153610F224368D2
:108E600002FA01F1194341607047000040F20043EB
:108E7000C4F20203984203D1052901D3FEE700BFE3
:108E800080B5136801EB810100EB810003619168FB
:108E90004161118AC1608168536821F47C5CD168AA
:108EA000D2F814E043EA0C03194341EA0E01816051
:108EB000117E8368012923F0400308BF403383609B
:108EC000517E8368012923F0800308BF80338360CB
:108ED000917E8268002922F0100218BF1032826051
:108EE00080BD000040F20043C4F20203984203D167
:108EF000052901D3FEE700BF01EB810100EB8100F2
:108F000081681143816070478900436802FA01F16A
:108F10001943416070470000082A19D80123934083
:108F200013F48A7F14D08B0001EB8101D0F800C0CC
:108F300000EB8100806802FA03F31CEA030100EAF7
:108F4000020018BF0121002818BF01200840704707
:108F5000FEE7000050B10021C0F81710C0E9001171
:108F6000C0E90211C0E90411704700BFFEE700002C
:108F700040F20043C4F20203984203D1052901D311
:108F8000FEE700BF01EB810192B200EB8100C260FD
:108F90007047000040F20042C4F20202904203D146
:108FA000052901D3FEE700BF01EB810100EB810041
:108FB000C0687047B0B545F27123C0F6000341F2B6
:108FC0000301002204460025FCF7A4FBD4F8E002CC
:108FD0000570B0BD704700002DE9F04F85B01E460A
:108FE000DDE90E840DF1130315468B46074600F0AC
:108FF00091F8012D08BF00281AD0022D08BF0028C3
:1090000056D19DF81300039607F128064FF0580932
:1090100010FB0960B0F95200FBF788FE9DF813A021
:109020001AFB0961A1F852008520264688703AE0B3
:109030009DF813A058201AFB0079B9F97A0003961D
:10904000FBF774FEA9F87A00D9F85C00002689F8CD
:109050002860A9F8306089F83260A9F82A60C9E967
:109060000D66A9F8646089F8666089F87860C9F8C7
:109070007C60C9F86860C9F86C600BF091F8C9E9C8
:109080001766C9F83C60C9F84060C9F84460C9F87F
:109090004860C9F84C60C9F85060C9F85460C9F814
:1090A000586089F8296058201AFB0070C662039E38
:1090B000384629465A463346CDF80080019403F0DD
:1090C0005BFD002818BFFF2005B0BDE8F08F000051
:1090D00043F20000C4F200004AF6AA210160704782
:1090E00080B541F20000C4F2000004F0ADF943F293
:1090F0007811C2F20001D1E902314FF6FF729842B5
:1091000038BF1044C91A084480BD000000680078C8
:109110007047000080B590F82AC0BCF1000F0DD058
:10912000BCF1850F0AD090F828C08C4506D190F884
:1091300029C0944502D10020D3BB54E090F882C0EE
:10914000BCF1000F0ED0BCF1850F0BD090F880C0A1
:109150008C4507D190F881C0944503D101203BBBD9
:1091600041E000BF90F8DAC0BCF1000F0ED0BCF1B6
:10917000850F0BD090F8D8C08C4507D190F8D9C096
:10918000944503D102209BB92DE000BF90F832C175
:10919000BCF1000F10D0BCF1850F0DD090F830C19C
:1091A0008C4509D190F831C1944505D10320D3B144
:1091B0004FF0000C187009E090F88AE14FF0FF0CB6
:1091C000BEF1000F02D0BEF1850F01D1604680BD17
:1091D00090F888C18C4509D190F88901904205D159
:1091E0000420002BE4D1002080BD00BFFF2080BD03
:1091F0001023002A08BF14231950704770B5CE06FB
:1092000001F00F0C06D5042A42D1C26B4CF0030CBE
:109210001A43C26300F11002282900F1140E3FD056
:1092200048291BD113F001045CD113F0020463D16F
:1092300013F004046AD113F0080471D113F0100480
:1092400079D113F0200440F0818013F0400440F005
:10925000888013F0800540F08F8024E1DC0740F027
:109260008F809C0700F195805C0700F19B801C07B4
:1092700000F1A180DC0600F1A7809C0600F1AD8022
:109280005C0600F1B3801C0600F1B8800BE100BF62
:109290004CEA020C00F11002282900F1140EBFD193
:1092A00013F0010440F0AC8013F0020440F0B380EE
:1092B00013F0040440F0BA8013F0080440F0C180B9
:1092C00013F0100440F0C88013F0200440F0CF8069
:1092D00013F0400440F0D68013F0800540F0DC80AD
:1092E000E1E000BF0568046125F00F0545EA0C05C3
:1092F000056013F002049BD00568046125F0F005B9
:1093000045EA0C15056013F0040494D00568046167
:1093100025F4706545EA0C25056013F008048DD02E
:109320000568046125F4704545EA0C35056013F0C5
:1093300010043FF486AF0568046125F4702545EA02
:109340000C45056013F020043FF47FAF056804610D
:1093500025F4700545EA0C55056013F040043FF410
:1093600078AF0568046125F0706545EA0C65056015
:1093700013F0800500F09780046805618EE000BF5F
:10938000046824F00F0444EA0C0404609C077FF591
:109390006BAF046824F0F00444EA0C1404605C072A
:1093A0007FF565AF046824F4706444EA0C2404601B
:1093B0001C077FF55FAF046824F4704444EA0C3462
:1093C0000460DC067FF559AF046824F4702444EA95
:1093D0000C4404609C067FF553AF046824F47004C9
:1093E00044EA0C5404605C067FF54DAF046824F039
:1093F000706444EA0C6404601C0654D504684DE0B3
:109400000568446125F00F0545EA0C05056013F079
:1094100002043FF44DAF0568446125F0F00545EACC
:109420000C15056013F004043FF446AF0568446171
:1094300025F4706545EA0C25056013F008043FF437
:109440003FAF0568446125F4704545EA0C35056079
:1094500013F010043FF438AF0568446125F470251B
:1094600045EA0C45056013F020043FF431AF056870
:10947000446125F4700545EA0C55056013F040047D
:109480003FF42AAF0568446125F0706545EA0C6534
:10949000056013F0800506D00468456124F070442F
:1094A00044EA0C74046013F4807413D113F4007450
:1094B00022D113F4806431D113F4006440D113F449
:1094C00080544FD113F400545ED113F480447CD007
:1094D0006CE000BF4568282925F00F0545EA0C051A
:1094E00004D0482904D1164601E000BF7646346016
:1094F000456013F40074DCD04568482925F0F00578
:1095000045EA0C1504D0282904D1764601E000BFB5
:1095100016463460456013F48064CDD04568482910
:1095200025F4706545EA0C2504D0282904D1764637
:1095300001E000BF16463460456013F40064BED0FD
:109540004568482925F4704545EA0C3504D028299A
:1095500004D1764601E000BF16463460456013F43E
:109560008054AFD04568482925F4702545EA0C455C
:1095700004D0282904D1764601E000BF16463460A5
:10958000456013F40054A0D04568482925F47005BF
:1095900045EA0C5504D0282904D1764601E000BFE5
:1095A00016463460456013F480440ED0456848295F
:1095B00025F0706545EA0C6504D0282904D176466B
:1095C00001E000BF16463460456013F4004308BF55
:1095D00070BD4468482924F0704444EA0C7502D0F8
:1095E000282901D172461360456070BD806808402B
:1095F00018BF012070470000B0B50422C4F2010278
:10960000134602F1180E002848BF73461C6800F488
:109610004013B3F5401F1FFA80FC07D1156824F0F2
:10962000E06325F0E064146017E000BFC3020BD4D0
:109630006FF00F0303EA50430CFA03F324EA030329
:1096400043F0E06309E000BFC0F30343032505FADC
:1096500003F324EA030343F0E0636FF00F0404EA2A
:10966000504400290CFA04F518BF2B43002848BFCA
:1096700072461360B0BD00002DE9F04182B045F2A2
:109680002923C0F6000341F21701002204464FF0DF
:109690000008FCF73FF8D4F8000284F8B4820078A0
:1096A00010B344F6A5354FF47A77C0F600050026CE
:1096B00003E000BF0136864216D2D4F8041231F816
:1096C00026100029F6D001FB07F3204631462A4632
:1096D000CDF80080FCF760F9D4F80812D4F8002225
:1096E00021F816001078E5E7D4F80C02008870B174
:1096F0004FF47A7145F2B53200FB01F3C0F6000277
:10970000204600210093FCF747F9A4F8100202B0AC
:10971000BDE8F081B0B50446D0F80002007888B109
:10972000D4F80812002500BF31F91500FBF7FEFA46
:10973000D4F80812D4F8002221F815001078013569
:109740008542F1D3B4F91002FBF7F0FAA4F8100245
:10975000B0BD000080B541B1034648B113A204205A
:109760000A2100F0CDFB002080BD4FF0FF3080BD0E
:1097700043F26430C2F20000428803889A4204BF78
:10978000002080BD00EB021202F1040E9EE808509A
:10979000126981E80850CA60418801318AB23F2AC3
:1097A00088BF00214180012080BD00BF43616E2041
:1097B0005265616420506172612069732057726F35
:1097C0006E672C2043616E4E6F203D202025640D76
:1097D0000A000000B0B586B040B1034626A20420BE
:1097E0000A2100F08DFB002006B0B0BD46F2004516
:1097F000C4F2000528460C4604F072FA01280BD189
:1098000020682179B0F5006F8DF80D1020D3042168
:109810008DF80C1002901FE043F26870C2F2000055
:109820000288511C8BB23F2B88BF002143888DB228
:109830009D42D8D000EB021294E82810E46802F1AF
:10984000040E8EE8281014610180012006B0B0BD1E
:1098500000218DF80C100190A0798DF80E00D4E94C
:109860000201CDF80F00CDF8131001A92846FFF72B
:1098700025FA012006B0B0BD43616E2057726974AD
:109880006520506172612069732057726F6E672C7A
:109890002043616E4E6F203D202025640D0A00009C
:1098A000B0B582B004460A280AD310A204200621CB
:1098B0000A23009400F024FB4FF0FF3002B0B0BD4B
:1098C00004F13200C0B20D4600F02CF810B10020B7
:1098D00002B0B0BD44F2401104EB8400C2F20001BA
:1098E00001EB40008575002002B0B0BD446F507799
:1098F0006D20506172616D657465722069732077A7
:10990000726F6E672C20446F50776D4D6178203DEB
:109910002025642C20446F50776D203D2025640D58
:109920000A00000080B582B043F24812C2F2000281
:109930001168844661B142F63C70C2F200000088B2
:10994000604514D951F82C0000F0010002B080BD30
:10995000BCF1FF0F10D0CCF3421002EB8000406846
:109960000CF01F01C84000F0010002B080BD46F6B7
:109970006622C0F6010203E046F6A522C0F6010207
:1099800004200C21FF23CDF800C000F0B9FA4FF0FD
:10999000FF3002B080BD000080B582B043F24811B4
:1099A000C2F200010A6884467AB142F63C70C2F203
:1099B0000000008860451BD952F82C0020F00100FF
:1099C00042F82C00002002B080BDBCF1FF0F14D083
:1099D000CCF3421301EB83010CF01F0001224B6812
:1099E00002FA00F023EA00004860002002B080BDC7
:1099F00046F66622C0F6010203E046F6A522C0F64E
:109A0000010204200C21FF23CDF800C000F078FAF9
:109A10004FF0FF3002B080BD10B582B043F2481164
:109A2000C2F200010A6804465AB142F63C70C2F222
:109A300000000088A04240F2898002EB84010120EE
:109A40000CE0FF2C00F0828004F01F00012202FADB
:109A500000F0C4F3421201EB820104310A681043A2
:109A60000860B82000F080F8A0426CD0B82000F068
:109A70007BF881B2B92000F045FAB92000F074F803
:109A800081B2BA2000F03EFABA2000F06DF881B23F
:109A9000BB2000F037FABB2000F066F881B2BC2092
:109AA00000F030FABC2000F05FF881B2BD2000F079
:109AB00029FABD2000F058F881B2BE2000F022FA49
:109AC000BE2000F051F881B2BF2000F01BFABF2089
:109AD00000F04AF881B2C02000F014FAC02000F073
:109AE00043F881B2C12000F00DFAC12000F03CF82B
:109AF00081B2C22000F006FAC22000F035F881B22F
:109B0000C32000F0FFF9C32000F02EF881B2C4207A
:109B100000F0F8F9C42000F027F881B2C52000F069
:109B2000F1F9C52000F020F881B2C62000F0EAF972
:109B3000C62000F019F881B2C72000F0E3F9611CDB
:109B4000B82000F0DFF9002002B010BD46F6A522D3
:109B5000C0F6010204200C21FF23009400F0D0F98C
:109B60004FF0FF3002B010BDF4288FBF4FF0FF3030
:109B700044F2C851C2F2000131F8100070470000F1
:109B800044F6B01100EB4000C2F2000101EBC0004E
:109B90008068704710B504460F280BD346F6113283
:109BA000C0F6010204200821234600F0A9F94FF075
:109BB000FF3010BDA01E05280BD8DFE800F0031110
:109BC00013150A174620FFF7ADFE00281CBF002022
:109BD00010BD43F23430C2F2000050F8240010BD32
:109BE000472004E0482002E04A2000E04920FFF737
:109BF00099FE00281CBF002010BD43F23430C2F291
:109C0000000050F8240010BD80B503460F280AD389
:109C100046F61132C0F601020420082100F070F966
:109C20004FF0FF3080BD0E2B4FF0000088BF80BD8D
:109C3000DFE803F0080E1E2A364C575D72D778888D
:109C400098A6BE0043F23430C2F20000006804E07F
:109C500043F23430C2F200004068FAF73EFC9FED58
:109C60006E0B53EC102BFAF757FBFAF773FC80BD21
:109C70004620FFF757FE002840F09E8043F2343024
:109C8000C2F20000806862E04720FFF74BFE002828
:109C900040F0928043F23430C2F20000C06856E0D7
:109CA0004820FFF73FFE002840F0868043F2343022
:109CB000C2F200000069FAF710FC9FED550B53EC5F
:109CC000102BFAF729FBFAF745FC80BD4A20FFF775
:109CD00029FE002870D143F23430C2F200004069FE
:109CE0000FE043F23430C2F2000080691FE04920E7
:109CF000FFF718FE00285FD143F23430C2F20000B3
:109D0000C069FAF7EAFB9FED400B53EC102BFAF712
:109D100003FBFAF71FFC80BD43F23430C2F20000AF
:109D2000006A14E043F23430C2F20000806AFAF7AD
:109D3000D4FB9FED310B53EC102BFAF7EDFAFAF749
:109D400009FC80BD43F23430C2F20000C06AFAF769
:109D5000C4FB9FED270B53EC102BFAF7DDFAFAF753
:109D6000F9FB80BD4620FFF7DDFD28BB0120012166
:109D700000F08EF843F23430C2F2000080680CE04C
:109D80004720FFF7CFFDB8B90220012100F080F88D
:109D900043F23430C2F20000C068FAF79EFB9FED38
:109DA000120B53EC102BFAF7B7FAFAF7D3FB80BD7E
:109DB0004820FFF7B7FD08B1002080BD0320012136
:109DC00000F066F843F23430C2F200000069FAF79E
:109DD00084FB9FED0B0B53EC102BFAF79DFAFAF76F
:109DE000B9FB80BD00BF00BFBFF690CB8A817A3F30
:109DF0000000000000C8F93F0000000000561340BA
:109E0000CD31FE47E9C9863F00000000000C22402A
:109E1000703E06E7632A0640F2F0F0F090BF314052
:109E200080B582B0844614280BD30AA204200421F2
:109E30001423CDF800C000F063F84FF0FF3002B0FB
:109E400080BD44F2F000C2F2000010F80C0002B035
:109E500080BD00BF4C6F63616C44692050617261CA
:109E60006D657465722069732077726F6E672C2040
:109E70004C6F63616C44694D6178203D2025642CF2
:109E8000204C6F63616C4469203D2025640D0A00FD
:109E900080B582B0844606280BD30AA2042005218F
:109EA0000623CDF800C000F02BF84FF0FF3002B0D1
:109EB00080BD44F6AC20C2F2000000F80C10002077
:109EC00002B080BD4C6F63616C446F205061726161
:109ED0006D657465722069732077726F6E672C20D0
:109EE0004C6F63616C446F4D6178203D2025642C7C
:109EF000204C6F63616C446F203D2025640D0A0087
:109F000000207047F4288FBF4FF0FF3044F2C85252
:109F1000C2F2000222F8101098BF00207047000023
:109F20002DE9F041A9B390460346012835D0002B16
:109F300063D144F6E440C2F20000078844883A1B2B
:109F400013B2002B48BF403213B29845C8BF9846A1
:109F50001FFA88FC9C4557DC5FEA084354D0002672
:109F6000002500BFBBB2A2B29A423B460AD010FA0B
:109F700084F212798A554288531C9AB23F2A88BFCC
:109F80000023438001352EB2B4453DDD07881C46D1
:109F9000E8E74FF0FF30BDE8F08144F66C50C2F2C4
:109FA0000000078844883A1B13B2002B48BF403298
:109FB00013B29845C8BF98461FFA88FC9C4523DC1D
:109FC0005FEA084320D00026002500BFBBB2A2B242
:109FD0009A423B460AD010FA84F212798A55428896
:109FE000531C9AB23F2A88BF0023438001352EB20A
:109FF000B44509DD07881C46E8E705A204200021D6
:10A000004FF00008FFF77CFF4046BDE8F08100BF3D
:10A0100052656164205561727420506172616D6592
:10A02000746572206973204572726F722C205561BD
:10A0300072744E6F203D2025640D0A00F0B581B08A
:10A04000154601280C4638D000286BD1002003F0BB
:10A0500073FE00286AD044F62851C2F200010B8832
:10A060004A889F1A38B2002848BF4037002D4FF069
:10A07000000055D03FB2C7F14007AF4250D9681E2B
:10A08000032805F0030C80F082800020BCF1000F53
:10A0900010D09FB2012616FA83F63E2F88BF002605
:10A0A000964204D0235C0F443B7133460E80BCF1D2
:10A0B000010F49D1002001B0F0BD012003F03CFEAA
:10A0C000D8B344F6B051C2F200010B884A889F1AF7
:10A0D00038B2002848BF40374FF0000005B33FB208
:10A0E000C7F14007AF421BD9681E032805F0030CD7
:10A0F00080F08E800020BCF1000FDBD09FB20126E3
:10A1000016FA83F63E2F88BF0026964204D0235CC1
:10A110000F443B7133460E80BCF1010F14D1002077
:10A1200001B0F0BD4FF0FF3001B0F0BD2046294630
:10A1300005F036FD002001B0F0BD2046294605F0AF
:10A140004BFD002001B0F0BD9DB2012717FA83F648
:10A150003E2D88BF0026964205D0431CE35C4F1974
:10A160003B7133460E80BCF1020FA3D09FB2012693
:10A1700016FA83F33E2F88BF002393429AD0023011
:10A18000205CCA1910710B80002001B0F0BDA5EB56
:10A190000C0E0020012503E0043086453FF476AF25
:10A1A0009FB215FA83F63E2F88BF0026964204D050
:10A1B000235C0F443B7133460E809FB215FA83F641
:10A1C0003E2F88BF0026964205D023185B780F44A7
:10A1D0003B7133460E809FB215FA83F63E2F88BF3F
:10A1E0000026964205D023189B780F443B713346D6
:10A1F0000E809FB215FA83F63E2F88BF0026964246
:10A20000CAD02318DB780F443B7133460E80C3E776
:10A21000A5EB0C0E0020012504E000BF04308645AC
:10A220003FF469AF9FB215FA83F63E2F88BF002630
:10A23000964204D0235C0F443B7133460E809FB29C
:10A2400015FA83F63E2F88BF0026964205D02318C4
:10A250005B780F443B7133460E809FB215FA83F64C
:10A260003E2F88BF0026964205D023189B780F44C6
:10A270003B7133460E809FB215FA83F63E2F88BF9E
:10A2800000269642CAD02318DB780F443B71334630
:10A290000E80C3E72DE9F04782B0DDE90A980E464B
:10A2A000A8F102019A4615460329074616D845F239
:10A2B00041724CF2C0634FF0000CC0F60002C0F2D5
:10A2C0002D0338463146CDF800C0FBF765FB582119
:10A2D00016FB0171A1F87A0009E000BF582016FBB7
:10A2E0000074B4F97A00FAF721FDA4F87A00582036
:10A2F00016FB0074E06D84F828500025A4F830A007
:10A3000084F8329084F82A8084F82B50C4E90D55E3
:10A31000A4F8645084F8665084F87850E567A56620
:10A32000E56609F03DFFE5650020256602B0BDE861
:10A33000F08700002DE9F041582711FB070C5CF86D
:10A3400038EF5CF8044C0EEB0205A54202D9FF2061
:10A35000BDE8F081202C33D8002A3ED058250024B7
:10A3600011FB0500002100BF04EB0E05054495F824
:10A370003C6041F00105EDB295421E552DD20EEB29
:10A380000504044494F83C6041F00204E4B29442B1
:10A390005E5522D20EEB0405054495F83C6041F071
:10A3A0000305EDB295421E5517D20EEB0504044489
:10A3B000043194F83C60CCB294425E55D4D30CE0A6
:10A3C000582411FB040050F85C1F0029BFD022B1B3
:10A3D00011F80E10012A197008D1DCF800001044A1
:10A3E000CCF800000020BDE8F08100BF01214FF053
:10A3F00002080126012500BF076806EB0E043C5D3C
:10A4000051FA85F797429C55E7D204680EEB070690
:10A41000A45D58FA85F69642DC55DED204680EEB50
:10A420000607E45DEF1CFFB297429C55D5D2046845
:10A430000EEB07060435A45DEEB29642DC55DBD385
:10A44000CBE700000000000082B04EF6085044F256
:10A450000001CEF20000C0F600010160086880F340
:10A46000088872B602F072FE03F0D6FF06F0CEFF47
:10A4700006F016FC06F02CFF41F2883009F0D8FCFB
:10A4800004F074FD07F040FD03F096FE03F004FFB6
:10A4900007F076F808F00CFF2C20FAF747FB46F699
:10A4A0000414C0F60104F0A304200E21224662B673
:10A4B000FFF726FDF3A304200E212246FFF720FD1F
:10A4C000F7A70FF2E8320FF2004304200E210097A5
:10A4D000FFF716FD00200522002307F06DFE012086
:10A4E0000522002307F068FE02206422002307F003
:10A4F00063FE0F204FF4FA72002307F05DFE0D207B
:10A500004FF4FA72002307F057FE2D204FF4FA7231
:10A51000002307F051FEEFA203200E21FFF7F0FC0D
:10A5200000200121FFF7B4FC43F668459FEDCC8B7A
:10A5300046F65717C2F20005C0F601070FF2A4381D
:10A5400002E000BF05F0FEFC0D2003F0E1FB012856
:10A5500010D0002003F0DCFB012815D0012003F00F
:10A56000D7FB012833D00F2003F0D2FB012838D0CD
:10A570003CE000BFFAF76EFD0D2005F01FFF002044
:10A5800003F0C6FB0128E9D1002007F007FE0220F6
:10A5900009F0AAFD06F03CF904F052F806F034FB8D
:10A5A00007F082FB03F0B4FC04F01EFD06F04AFD48
:10A5B00003F0FCFE03F03CFE03F09AFE07F05CF8AB
:10A5C00009F05AF8012003F0A3FB0128CBD105F0D4
:10A5D00007FF012007F0E2FD0F2003F099FB01289F
:10A5E00004D103F08BFB002800F02B81022003F044
:10A5F0008FFB012804D109F04BFC022007F0CEFDAF
:10A600002D2003F085FB01289CD10020FFF708FCDA
:10A610000138B0FA80F04FEA50190120FFF700FC32
:10A6200001284FF0020008BF09F10209FFF7F8FB0B
:10A6300001284FF0030008BF09F10409FFF7F0FB00
:10A6400001284FF0040008BF09F10809FFF7E8FBF3
:10A6500001284FF0050008BF49F01009FFF7E0FBA3
:10A6600001284FF0060008BF49F02009FFF7D8FB8A
:10A6700001284FF0070008BF49F04009FFF7D0FB61
:10A6800001284FF0080008BF49F08009FFF7C8FB18
:10A6900001284FF0090008BF49F48079FFF7C0FB9B
:10A6A00001284FF00A0008BF49F40079FFF7B8FB12
:10A6B00001284FF00B0008BF49F48069FFF7B0FB99
:10A6C00001284FF00C0008BF49F40069FFF7A8FB10
:10A6D00001284FF00D0008BF49F48059FFF7A0FB97
:10A6E00001284FF00E0008BF49F40059FFF798FB0E
:10A6F00001284FF00F0008BF49F48049FFF790FB95
:10A7000001284FF0100008BF49F40049FFF788FB0B
:10A7100001284FF0110008BF49F48039FFF780FB92
:10A7200001284FF0120008BF49F40039FFF778FB09
:10A7300001284FF0130008BF49F48029FFF770FB90
:10A740000128288808BF49F40029F9F7D7FE5BECF7
:10A7500018AB52465B46F9F7DFFD41EC100B46F6AD
:10A760009F1201200E21C0F601028DED000BFFF7B4
:10A77000C7FB6888F9F7C2FE52465B46F9F7CCFD85
:10A7800041EC100B46F6B91201200E21C0F6010271
:10A790008DED000BFFF7B4FBDC20FFF7E5F946F683
:10A7A0000A12034601200E21C0F60102FFF7A8FBA2
:10A7B00046F6D31201200E21C0F601024B46FFF7E8
:10A7C0009FFB0020FFF720FA46F61D1203460120EA
:10A7D0000E21C0F60102FFF793FB0120FFF714FAE8
:10A7E00004460120FFF7D6F946F67212060301204F
:10A7F0000E21C0F6010223460096FFF781FB0220DE
:10A80000FFF702FA46F63C12034601200E21C0F67D
:10A810000102FFF775FB0320FFF7F6F9034601205D
:10A820000E213A46FFF76CFB0420FFF7EDF90346D3
:10A8300001200E214246FFF763FB2D2007F0AEFCFE
:10A8400080E603F07DFD0F2007F0A8FC022003F056
:10A850005FFA01283FF4CFAED2E600BF00BF00BFD1
:10A860002D431CEBE2365A3F51505F4543555F483C
:10A87000573A203233303532365F56312E30302E53
:10A880003030000051505F4543555F53573A2032F6
:10A8900033303532365F56312E30302E30300000B6
:10A8A00031303A31303A313700000000436F6D707B
:10A8B000696C653A20446174613A25732054696D6E
:10A8C000653A25730A000000536570203239203242
:10A8D00030323400456375206973205265616479B4
:10A8E000210D0A0041495F425F4149335F522041D7
:10A8F000692056616C7565203D2025640D0A0000B5
:10A9000080B584B0D0F8B8024FF000738DF809100C
:10A9100001A901938DF80820FEF700F804B080BD6E
:10A920004EF60C5CCEF2000CDCF8003003F4E06371
:10A93000B3F5E06F02D104232FE000BFDCF8003054
:10A9400003F4E063B3F5C06F02D1032325E000BF39
:10A95000DCF8003003F4E063B3F5A06F02D102230A
:10A960001BE000BFDCF8003003F4E063B3F5806F58
:10A9700002D1012311E000BFDCF8003003F4E063F2
:10A98000B3F5407F02D1002307E000BF40F200533F
:10A99000C0F2FA53CCF80030022301FA03FCC3F1F1
:10A9A00004030F21D94011404EF2001241EA0C017C
:10A9B000CEF20002090140EA020383F8001300F01E
:10A9C0001F01012303FA01F11C2303EAD000815087
:10A9D0007047000040F080604EF60C5140F0FD7072
:10A9E000CEF20001086070472DE9F04786B0894635
:10A9F0000546582119FB015717F8322F20203C46F5
:10AA0000059034F8021D012040F2050807F10A0301
:10AA10000DF1130A05AECDE902002846C0F2045834
